:020000040800F2
:1000000040060024AD020008AF1E0008F1160008EB
:10001000AD1E000841080008C524000800000000CB
:100020000000000000000000000000005522000851
:100030004308000800000000A92000085922000819
:10004000C7020008C7020008C7020008C70200086C
:10005000C7020008C7020008C7020008C70200085C
:10006000C7020008C7020008C7020008C70200084C
:10007000C7020008C7020008C7020008C70200083C
:10008000C7020008C7020008C7020008C70200082C
:10009000C7020008C7020008C7020008C70200081C
:1000A000C7020008C7020008C7020008C70200080C
:1000B00015230008C7020008C7020008C70200088D
:1000C000C7020008C7020008C7020008C7020008EC
:1000D000C7020008C7020008C7020008C7020008DC
:1000E000C7020008C702000800000000C70200089D
:1000F000C7020008C7020008C7020008C7020008BC
:10010000C7020008C7020008C7020008C7020008AB
:10011000C7020008C7020008C7020008C70200089B
:10012000C7020008C7020008C7020008C70200088B
:10013000C7020008C7020008C7020008C70200087B
:1001400000000000000000000000000000000000AF
:10015000C7020008C7020008C7020008C70200085B
:10016000C7020008C7020008C7020008C70200084B
:10017000C7020008C7020008C7020008000000000C
:10018000C7020008C7020008C7020008C70200082B
:10019000C7020008C7020008C7020008C70200081B
:1001A000C7020008C7020008C7020008C70200080B
:1001B000C7020008C7020008C7020008C7020008FB
:1001C000C7020008C7020008C7020008C7020008EB
:1001D000C7020008C7020008C7020008C7020008DB
:1001E000C7020008C7020008C7020008C7020008CB
:1001F000C7020008C7020008C7020008C7020008BB
:10020000C7020008C7020008C7020008C7020008AA
:10021000C7020008C7020008C7020008C70200089A
:10022000C7020008C7020008C7020008000000005B
:10023000C7020008C702000800000000C70200084B
:10024000C7020008C7020008C7020008C70200086A
:10025000C7020008C7020008C7020008C70200085A
:10026000C7020008C7020008C7020008C70200084A
:10027000C7020008C7020008C7020008000000000B
:10028000C7020008C7020008C702000800000000FB
:1002900000000000C7020008DFF80CD000F01EFAD2
:1002A00000480047C924000840060024064880474B
:1002B00006480047FEE7FEE7FEE7FEE7FEE7FEE74B
:1002C000FEE7FEE7FEE7FEE7652200089902000868
:1002D000421C10F8011B0029FBD1801A704730B571
:1002E0000B46014600202022012409E021FA02F5F4
:1002F0009D4205D303FA02F5491B04FA02F528448E
:10030000151EA2F10102F1DC30BD2DE9F05F0546BA
:10031000002092469B4688460646814640241BE0C4
:10032000284641464746224600F0F9F953465A46C8
:10033000C01A914110D311461846224600F0E0F948
:100340002D1A67EB01084F4622460120002100F0DC
:10035000D7F917EB00094E41201EA4F10104DFDCA0
:10036000484631462A464346BDE8F09F2DE9FE4FF8
:10037000804681EA0300C00F0C46009021F0004146
:1003800023F00045B8EB0200A94105D240462146C2
:1003900090461C460B46024623F00040104347D0CF
:1003A000270DC7F30A00C3F30A510290401A0190C7
:1003B00040286BDAC3F3130040F4801B0098924688
:1003C00020B10023D2EB030A63EB0B0B01985946D3
:1003D000C0F14002504600F093F906460D465046E3
:1003E0005946019A00F0ABF910EB08006141002476
:1003F00087EA115284EAE7731A4340D0009A62B345
:10040000019A012A4FEA075215DC001B61EB020139
:100410004FF0004202EA0752CDE90042001C41F5CC
:10042000801132462B4600F0ABF903B0BDE8F08FE7
:1004300040462146F9E7001B61EB0201001C41F533
:10044000801300185B412018A2F5001747EB030149
:1004500040EAD570B6196D4111E06D084FEA3606D5
:1004600045EAC0754FEA0752001B61EB0201001C10
:1004700041F5801149084FEA3000001951413246D8
:100480002B4603B0BDE8F04F00F06BB90098012295
:1004900040000023D0EB020263EBE073009821469A
:1004A0004FEAE074B8EB000061EB0401E9E783F088
:1004B00000435BE781F0004158E72DE9FE4F81EAF8
:1004C000030404F0004421F0004100944FF0000BBD
:1004D00023F0004350EA01045ED052EA03045BD0EB
:1004E000C3F30A54C1F30A552C44A4F2F334019423
:1004F000A0FB0254C1F3130141F48011C3F31303B1
:1005000043F4801301FB024400FB034E840A970A64
:1005100044EA815447EA8357A4FB076802958D0A91
:1005200005FB07854FEA932C04FB0C542705029D1D
:100530004FEA065847EA1637B5EB08056EEB070C8D
:10054000870E920E47EA811742EA8312A7FB020147
:10055000B6EB0B0164EB00042B0D43EA0C335E1881
:1005600044EB1C50DA465146E7FB0201C5F3130485
:100570004FEA0B3343EA14534FEA0432019C43EA37
:100580000603A4F10C040294009CCDE900B400F031
:10059000F7F803B0BDE8F08F00200146F9E72DE938
:1005A000F04D81EA030404F0004B21F000451446AD
:1005B0004FF0000A23F0004150EA050220D054EA2F
:1005C00001021DD0C5F30A570246C5F31303C1F358
:1005D0001300C1F30A5640F4801543F48013A7EBCF
:1005E0000608101BD64608F2FD3873EB050002D34F
:1005F00008F1010801E092185B41B8F1000F03DA3D
:1006000000200146BDE8F08D00204FF48011064621
:1006100084460EE0171B73EB050705D3121B63EB33
:10062000050306434CEA010C49084FEA30009218D2
:100630005B4150EA0107EDD152EA030012D082EA91
:10064000040083EA0501084305D0101BAB4106D224
:100650000122002306E000224FF0004302E06FF089
:10066000010253101AEB06004CEB085110EB0A0084
:1006700041EB0B01BDE8F04D00F073B8C1F30A5235
:10068000C1F3130140F2FF3341F480119A4202DAC0
:1006900000200146704740F233439A42A2F23342AF
:1006A00002DC524200F03BB800F02AB830B5041E1C
:1006B00071F1000404DB4FF00044404264EB01019F
:1006C000141E73F1000405DB1C464FF00043524238
:1006D00063EB0403994208BF904230BD064C074DBE
:1006E00006E0E06840F0010394E807009847103402
:1006F000AC42F6D3FFF7D4FDB83F0008D83F00085E
:10070000202A04DB203A00FA02F1002070479140D1
:10071000C2F1200320FA03F3194390407047202AC6
:1007200004DB203A21FA02F00021704721FA02F39B
:10073000D040C2F120029140084319467047202A58
:1007400006DBCB17203A41FA02F043EAE07306E0F9
:1007500041FA02F3D040C2F1200291400843194609
:10076000704710B5141E73F1000408DA401C41F103
:10077000000192185B411A4301D120F0010010BD25
:100780002DE9F04D92469B4611B1B1FA81F202E09B
:10079000B0FA80F220329046FFF7B2FF04460F46CF
:1007A00040EA0A0041EA0B0153465A46084313D077
:1007B000114653EA010019D0C8F140025046FFF734
:1007C000AEFF05460E46504659464246FFF798FF93
:1007D000084305D0012004E020463946BDE8F08DED
:1007E0000020054346EAE0762C4337430A98630528
:1007F000E40AA0EB08000022FD0A44EA47540A304C
:1008000002D500200146E9E7010510196941DDE93B
:10081000084500196941BDE8F04DA2E7D2B201E0F8
:1008200000F8012B491EFBD270470022F6E710B5F5
:1008300013460A4604461946FFF7F0FF204610BD4E
:10084000FEE77047EFF3108072B6FEE7D84901303B
:100850004A684B689B1A8342FBD370472DE9FC4FD3
:100860005D4A0A244FF000094FF0000A90425B4AAB
:1008700008BF092402444FEAB223092B38BF4FEACC
:10088000B224009400220E6836FA02F300F0A18030
:100890000123934016EA030B00F09580D1F804E0A1
:1008A0000EF0030CACF10105012D15D8032404FA58
:1008B00009F58468CF68AC4307FA09F76FEA0508C1
:1008C0003C438460CEF300144768944027EA030356
:1008D0002343436053000CE0032303FA09F3BCF104
:1008E000030F6FEA03084B4603D14B464FF0030C4E
:1008F00020E0C4688D6804EA08049D402C43C4606D
:10090000BCF1020F16D10AF01C040F2505FA04FCF5
:100910006FF0030505EA520707443D6A25EA0C0C0F
:100920000D6905FA04F444EA0C043C62D1F804E0D1
:100930000EF0030C04680CFA03F304EA08042343E2
:1009400003601EF4403F3ED0264C274E236843F000
:100950000203236023680F2403F002030193019D27
:100960000AF00C0322F003059C40AF5927EA040467
:10097000009F07FA03F32343AB514FF0B0463368AF
:100980004D6843EA0B04EF0258BF23EA0B043460BE
:10099000134EAF02336843EA0B0458BF23EA0B043B
:1009A0003460AF03D6F8803043EA0B0458BF23EA23
:1009B0000B04C6F88040ED03F36F43EA0B0458BF05
:1009C00023EA0B04F46709F102090AF1040A01326F
:1009D00059E7BDE8FC8F00BF002402580000FEA7C5
:1009E00004000058F4440258080400582DE9F84364
:1009F000554C054694F84100202814D10E46A1B16B
:100A000094F8400001280ED0012084F840001746D9
:100A1000012119226648D0F804804FF40040434673
:100A200000F0F4FE30B1BDE8F8834FF4007060646C
:100A3000BDE8F883222084F841004FF00009444AC1
:100A4000402084F84200C4F8449067856662C4F888
:100A500034903E4E20684168314011434160404629
:100A600000F01EFF48B92068E9B264224346816263
:100A70004020002100F0CAFE18B184F84090BDE883
:100A8000F883608D334DB0F5807F04D3FF2020853F
:100A900005F5105006E0608D05F592312085C0B255
:100AA00041EA004021684FF0FF0906F580674A6877
:100AB000324005F5803610434860042001F0B8FA52
:100AC0000028B0D12068616A406A0870608D0138E2
:100AD0006085606A01306062208D01382085618DFB
:100AE000C1B1000416D1802001F0A2FA00289AD1E9
:100AF000608DB0F5807F03D3A4F82890284604E0E9
:100B0000608D2085C0B246EA004021684A683A40BC
:100B100010434860608D0028CFD1404600F0A4FE0D
:100B200000287FF480AF206820210B4BC161426810
:100B30001A40426084F84110002084F8400084F894
:100B40004200BDE8F88300BFA0000024009800FC2C
:100B5000D0200100D000FF0100E800FE10B51149CF
:100B60004FF47A720968B1FBF2F14A1E0021B1EB31
:100B7000126F01D0012412E00B4BF0245A600B4A93
:100B8000147099600721012419600F2807D84FF0CD
:100B9000FF300F2100F00EF80548047000242046B5
:100BA00010BD00BF0400002410E000E023ED00E0D1
:100BB000DC01002410B500F00F03104C0E4A043B7A
:100BC00023440C33B0F1FF3FC8BF831820684FF0B7
:100BD000FF34C0F30220C21E80F0070038BF00229D
:100BE000042828BF042004FA00F021EA0000904005
:100BF0000001187010BD00BF00E400E00CED00E043
:100C0000B0B51C498B6A8A6ACC6ACD6BC2F30532D7
:100C1000B2B1C4F3001401F077F915D0BBB90B6879
:100C20009B0651BF9FED161A0B68C3F3C103154C09
:100C300042BF24FA03F301EE103AB8EE411A08E07D
:100C40000021C0E9001112E09FED0C1A01E09FEDB8
:100C50000A1A8B6B9FED0C3A01F041F98A6B01F097
:100C6000C8F98A6B01F011FA896B01F0FFF9816014
:100C7000B0BD00BF004402580024744A20BCBE4BE3
:100C80000024744C0090D00300000039B0B51C491A
:100C90008B6A8A6ACC6A4D6CC2F30552B2B1C4F356
:100CA000002401F031F915D0BBB90B689B0651BF88
:100CB0009FED161A0B68C3F3C103154C42BF24FA0B
:100CC00003F301EE103AB8EE411A08E00021C0E942
:100CD000001112E09FED0C1A01E09FED0A1A0B6C57
:100CE0009FED0C3A01F0FBF80A6C01F082F90A6CF6
:100CF00001F0CBF9096C01F0B9F98160B0BD00BF1A
:100D0000004402580024744A20BCBE4B0024744C9A
:100D10000090D003000000392DE9F8430446C07864
:100D2000A74F00071CD5A06E4FEA3051032908D801
:100D3000DFE801F002090C11F96941F40031F961B1
:100D400009E001260DE001F08CF901E001F0B5F8B1
:100D5000064630B9A06E396C21F44011084338645E
:100D600000266078B946C00701D1354620E0A06D65
:100D700004280ED83546DFE800F0030F09121200F0
:100D8000F869354640F40030F86108E001F064F994
:100D900004E0012501270CE001F08AF805462F4602
:100DA0003DB9A06D01F0BBF821F0070101F014F985
:100DB0003746607880071ED5E06D4FEAB0100428F2
:100DC0000AD8DFE800F0030C060F0F0001F0CDF8A1
:100DD00008E001F041F904E0012501260CE001F0F2
:100DE00067F805462E463DB9E06D01F098F821F40C
:100DF000E07101F0F1F83E466078400702D4B04659
:100E00004F4623E0D4F8A8004F464FEA705004281C
:100E10000AD8DFE800F0030D0610100001F003F916
:100E200009E001F019F905E001254FF001080DE096
:100E300001F03EF80546A84645B9D4F8A800B96CBB
:100E40000025B04621F460010843B86460780007CB
:100E500020D5D4F8AC004FEA306004280AD8DFE887
:100E600000F0030C060F0F0001F0DDF808E001F0C0
:100E7000F3F804E0012501270DE001F019F805461B
:100E80002F4645B9D4F8AC0001F039F821F0E06103
:100E900001F090F84746E07880071DD5E06C4FEAF6
:100EA0003010032806D8DFE800F00B02080B01F031
:100EB0005CF805E0012501260FE001F0D2F80546B7
:100EC0002E4655B9E06CD9F83C1000254A4621F071
:100ED00030010843C9F83C003E466078C0061ED584
:100EE000206E4FEA303004280AD8DFE800F0030C07
:100EF000060F0F0001F039F808E001F0ADF804E04A
:100F0000012501270CE000F0D3FF05462F463DB92F
:100F1000206E01F004F821F4E04101F05DF837465D
:100F2000607880061BD5606E4FEA3040052807D8F0
:100F3000DFE800F00C03090C0C0C01F088F804E069
:100F4000012501260CE001F07DF805462E463DB94D
:100F5000606E00F0E4FF21F4E02101F03DF83E4630
:100F6000607840061DD5D4F8B0004FEA30700528EF
:100F700007D8DFE800F00C03090C0C0C01F067F84F
:100F800004E0012501270DE001F05CF805462F463D
:100F900045B9D4F8B00000F0B2FF21F0E04101F013
:100FA00009F837466078000618D5206F68B1B0F1AF
:100FB000005F07D0B0F1805F22D100F0D6FF04E0DF
:100FC0001044025801F043F805462E463DB9206F03
:100FD00000F0A5FF21F0405100F0FEFF3E46E07812
:100FE000C00702D131464F461DE0A06C4F46032892
:100FF00009D8DFE800F00E020B0E01F014F808E04B
:1010000001250126EBE7012501210CE001F029F87B
:10101000054629463DB9A06CF96B002521F0030176
:1010200008433146F8632068420201D40E4615E0B9
:10103000D7F8F02342F48072C7F8F023DFF8582E77
:101040005368D7F8F063F60506D45668F61A642E8E
:10105000F7D90325032601E02E4675B1C00764D0F9
:10106000E06F4FEAF000052850D8DFE800F05503A4
:101070005255555500F0EBFF4DE0D9F86030D4F8EB
:10108000B4C083EA0C0313F4407F12D0D9F8603067
:10109000D9F860504E4645F48035C9F8605023F4C5
:1010A0004073D9F8605025F48035C9F86050C9F80C
:1010B0006030BCF5807F0FD1576841F288334D46D0
:1010C000D9F86050AD0707D45568EE1B03259E4242
:1010D0004FF00306F3D9C1E7D9F80030AD4A0CF45C
:1010E00040754E4623F47C5302EA1C12B5F5407F4E
:1010F0006FF31F3C08BF1343C9F800300025D9F82F
:10110000602042EA0C02C9F860208FE70125012720
:101110000CE000F097FF05462F463DB9E06F00F068
:1011200036FF21F0380100F05BFF3746207880075A
:1011300019D5A06F052807D8DFE800F00C03090CCB
:101140000C0C00F084FF04E0012501260CE000F007
:1011500079FF05462E463DB9A06F00F018FF21F03B
:10116000070100F03DFF3E46207840071DD5D4F82A
:101170009400052808D84F46DFE800F00D030A0D5B
:101180000D0D00F064FF05E001254FF001080DE0B2
:1011900000F058FF0546A84645B9D4F89400B96C4C
:1011A000002521F007010843B864B0462078800686
:1011B0001DD5D4F890004FEA3070052807D8DFE835
:1011C00000F00C03090C0C0C00F072FE04E0012589
:1011D00001270DE000F071FE05462F4645B9D4F811
:1011E000900000F0D4FE21F0E04100F0F9FE474607
:1011F000207840061DD5D4F89C004FEAB020052881
:1012000007D8DFE800F00C03090C0C0C00F050FECE
:1012100004E0012501260DE000F04FFE05462E46B4
:1012200045B9D4F89C0000F06AFE21F4E05100F0CA
:10123000C1FE3E46207800061DD5D4F8A0004FEA36
:101240007030052807D8DFE800F00C03090C0C0CFF
:1012500000F02EFE04E0012501270DE000F02DFE38
:1012600005462F4645B9D4F8A00000F048FE21F409
:10127000604100F09FFE37462068010713D5D4F87F
:101280008400B0F5805F06D100F017FE002818BF7B
:101290000127D4F88400D9F844104A4621F440517B
:1012A00000F09EFE2068C10613D5D4F89800B0F572
:1012B000807F06D100F001FE002818BF0127D4F876
:1012C0009800D9F848104A4621F4407100F072FEA7
:1012D000206800031AD5D4F8A400B0F5003F0BD065
:1012E000B0F5803F05D0002840F0F48000F0E0FD2C
:1012F00001E000F0E2FD05462E4645B9D4F8A40011
:1013000000F0FDFD21F4403100F054FE3E46A0788F
:1013100040071BD5D4F88800B0F5401F0CD0B0F5BD
:10132000001F06D0B0F5801F40F0D78000F01DFEF2
:1013300002E000F087FE05462F4645B9D4F8880044
:1013400000F025FE21F4401100F04AFE3746A07857
:10135000C00716D0206DB0F5803F03D098B900F0DB
:1013600004FE02E000F07DFE05462E466DB9206DBC
:10137000D9F83C1000254A4621F480310843C9F8C9
:101380003C003E4601E0012501262168880003D487
:10139000606808E0CFFFFF0000F08FFD002818BF55
:1013A0000126D4E900108A031BD5D4F880206FF001
:1013B000010303EB3223022B0BD34FEA322343B159
:1013C000012B40F08D80D9F81C3043F40033C9F86C
:1013D0001C303DB9D9F8443023F440731A43C9F89E
:1013E00044203546CA0207D5626FD9F8403023F051
:1013F00000431A43C9F84020CA0008D5D4F8B820E1
:10140000D9F8003023F480431A43C9F800208A0237
:1014100007D5E26ED9F8403023F080731A43C9F83B
:1014200040204A000CD5D9F8002022F40042C9F827
:101430000020D4F8BC20D9F800301A43C9F80020A5
:10144000CA0F07D0626DD9F83C3023F040531A43DD
:10145000C9F83C20090208D5D4F88C10D9F84420EA
:1014600022F440021143C9F84410C10705D000F02E
:101470001FFD002818BF05466068810705D500F0EC
:10148000E6FD002818BF05466068410705D500F055
:10149000E8FD002818BF05466068010705D500F083
:1014A000DBFD002818BF05466068C10605D500F0C1
:1014B000C9FD002818BF05466068800604D500F005
:1014C000FCFC002818BF0125002D18BF0125284667
:1014D000BDE8F8830125012619E70125012736E734
:1014E00001257FE780B500F02FF80949154B0A6800
:1014F000096801F00F01C2F30322595C9A5C01F004
:101500001F0102F01F02D040024A1060C84080BD97
:10151000184402580400002480B5FFF7E3FF08498F
:10152000084A0968C1F3021100F05EBD80B5FFF7FB
:10153000D9FF0349034A0968C1F3022100F054BDF1
:101540001C4402584C3E000810B534490869C0F3E9
:10155000C20003280FD0022804BF324810BD40B992
:1015600008688006334858D50968C1F3C101C840EE
:1015700010BD2B4810BD8A6A886ACB6A4C6BC0F3D9
:101580000510F0B103F00103C4F3CC0402F0030230
:101590006343022A00EE103AB8EE400A13D0AAB90B
:1015A0000A68920651BF9FED221A0A68C2F3C1026F
:1015B000204B42BF23FA02F201EE102AB8EE411A84
:1015C00006E0002010BD9FED191A01E09FED161AEC
:1015D0000A6B9FED193A6FF35F2202EE102AB8EE04
:1015E000422A00EE032AB7EE000A32EE000A02EEAB
:1015F000100A086BC0F34620B8EE422A013081EE93
:10160000021A21EE000A01EE100AB8EE411A80EE2D
:10161000010ABCEEC00A10EE100A10BD00440258C8
:1016200000093D0040787D010024744A20BCBE4B77
:101630000024744C0090D003000000392DE9F041E3
:101640000446D0F88800202819D10E46D1B1CAB17D
:1016500021204FF00008C4F89080C4F88800A4F856
:1016600054201D469D484768A4F85620A068B0F550
:10167000805F0CD1206940B14FF0000807E00220E4
:10168000BDE8F0810120BDE8F081B0460026B4F845
:101690005600C8B1204680213A462B4600F0B6FEDF
:1016A00000BB26B1216816F8010B886206E038F805
:1016B000021B206800266FF35F218162B4F8560098
:1016C0000138A4F85600E2E7204640213A462B466E
:1016D00000F09CFE2021C4F88810002818BF0320C9
:1016E000BDE8F0812020C4F888000320BDE8F08127
:1016F000FEE70000F0B5784A13689C69E40602D45E
:101700000020002133E001264FF0000C734D10241F
:10171000DC619F69BF0623D4F70721D06E68771A72
:1017200001268742F5D95F6892F842609C692404DB
:1017300009D517F4804406D1202E04D0596841F40D
:101740008041596069689C69A40607D46C68641A72
:101750001A2CF8D34CF0200C0026DAE70126D8E743
:10176000F00701D02020D8614CF0040001219C69D1
:10177000E50505D54FF48071D96140F001000121E4
:10178000650504D4A40509D469B90020F0BD4FF45F
:101790008061D96140F00800A10504D540F0020045
:1017A0004FF40071D9619969890701D500219962C7
:1017B0009969C90703D1996941F001019961596893
:1017C000074C21405960516C08435064202082F836
:1017D0004100002082F8400082F842000120F0BD64
:1017E00000E800FE1143074B194041EA00403A4926
:1017F00009684B6823EA5252034B1A401043D03019
:10180000486070472FFFFF7F009C00FC2DE9F843E4
:101810001C4615460E460746DFF87886DFF89C9C86
:1018200000F099FB1DD128462146FFF763FFA8B9B8
:10183000D9F80400001BA842F2D900F08CFBEFD1CC
:10184000D8F8440040F02000C8F84400202088F870
:101850004100002088F8400088F842000120BDE8DF
:10186000F8830020BDE8F88370B504461A4D1B4E7E
:1018700028688069800610D464202146FFF73AFF6B
:1018800048B97068001B6528F2D328688069800613
:10189000EED400F017FB012070BD002070BD00BF2A
:1018A00070B504460C4DF74E28688069800710D447
:1018B00064202146FFF71EFF48B97068001B6528A9
:1018C000F2D3286880698007EED400F0FBFA01208B
:1018D00070BD002070BD00BFA0000024DC0100240A
:1018E0002DE9FC41DFF8DC80044698F8000008B1DF
:1018F000012564E000F094FB00F018FA00F090FB82
:1019000000208DF807000DF1070101227520FFF777
:101910006DF89DF80750B4B32B4E2CA12A463046E3
:1019200001F0C8FD3046FEF7D3FC82B220463146B6
:1019300000F0E2FA682D2FD13049314D20461422B3
:101940006423A8472FA120462D226423A84738A14D
:10195000204629226423A84703251B4E3FA715B321
:10196000304639462A4601F0A5FD3046FEF7B0FC68
:1019700082B22046314600F0BFFA4FF47A70FEF78B
:1019800065FF013DEBE7682D0BD1002000F06CF8FE
:10199000012588F8005012E012A12046142200F020
:1019A000ABFA00250BE0204600F05EF82D492046FA
:1019B00012226423012588F80050FFF73FFE2846D5
:1019C000BDE8FC8108000024090000244D50553674
:1019D0003035302049443A203078253032580D0ACD
:1019E000000000004D505536303530204E6F7420C9
:1019F000466F756E64210D0A000000007F3E0008EE
:101A00003D1600084175746F2D63616C69627261E7
:101A100074696F6E207374617274696E6720696E89
:101A20002033207365636F6E64732E2E2E0D0A00B3
:101A3000506C6561736520706C616365204D505515
:101A400036303530206C6576656C20616E642073AD
:101A500074696C6C210D0A0D0A00000025642E2E9D
:101A60002E0D0A006C3E00082DE9F04F8FB0804625
:101A70000020CDE90D00CDE90B00CDE90900B8F15A
:101A8000000F09D067A14046192200F035FA6CA179
:101A90004046262200F030FACDF814800DF11E06E3
:101AA00006AD00270DF1300B0DF1240ADFF8B891D7
:101AB000281D341D06F102080490A81C0390B7F5F8
:101AC000FA7F38D003980090414622462B4604986E
:101AD0000190304600F0FCF8002003280FD036F9C2
:101AE00010105BF8202011444BF820105AF82020E9
:101AF00035F9101011444AF820100130EDE7013794
:101B00000598A0B13221B7FBF1F000FB117070B95C
:101B1000484656A13A464FF4FA7301F0CBFC4846CA
:101B2000FEF7D6FB82B20598494600F0E5F90A2097
:101B3000FEF78CFEC3E70020524D4FF4FA71059F6B
:101B400003280DD05BF8203005EB400293FBF1F346
:101B500013815AF82030013093FBF1F3D381EFE782
:101B60004FF4FA700E9991FBF0F006046FB13E4C01
:101B700032144549204601F09DFC2046FEF7A8FBA3
:101B800082B23846214600F0B7F9A889012E08DB59
:101B9000002FA0F58040A8813FD0484938462E222A
:101BA00006E000F58040A881BFB338A138462F2257
:101BB00000F0A2F9012028754149424E1722642302
:101BC0003846B047B5F90820B5F90A30B5F90C0028
:101BD000254C3D490090204601F06CFC2046FEF764
:101BE00077FB82B2384621466423B047B5F90E2010
:101BF000B5F91030B5F9120034490090204601F0D3
:101C000059FC2046FEF764FB82B238462146642325
:101C1000B4460FB0BDE8F04F6047012028750FB003
:101C2000BDE8F08F5374617274696E672063616CF4
:101C30006962726174696F6E2E2E2E0D0A000000AB
:101C4000506C65617365206B656570204D5055362D
:101C5000303530207374696C6C20616E64206C6563
:101C600076656C210D0A00000900002443616C694F
:101C700062726174696E672E2E2E2025642F256492
:101C80000D0A0000DC010024AC3E000844657465C8
:101C9000637465643A2053656E736F7220696E7663
:101CA000657274656420285A2D61786973206E65A9
:101CB000676174697665290D0A000000F73E000827
:101CC000943E00083D1600084F3F0008713F000891
:101CD000F0B585B015460E4607460DF106013B20CE
:101CE0000E221C46FEF782FEBDF806000A9900BAD5
:101CF000000C3880BDF8080000BA000C3080BDF838
:101D00000A0000BA000C2880BDF80E0000BA000CD2
:101D10002080BDF8100000BA000C08800B99BDF8B7
:101D2000120000BA000C088005B0F0BDB0B50A4D35
:101D30006420A847094C6B200121A0473220A84706
:101D40001B200021A0471C200021A047322029464B
:101D5000BDE8B040084700BF4D080008611D0008FD
:101D60002DE9F8434B4E8DF80310054696F84100D7
:101D7000202810D196F8400001280CD046480127B1
:101D800086F840700121192244684FF40040234630
:101D9000FFF73CFD08B1BDE8F883212086F841003B
:101DA0004FF00008402086F84200C6F8448077854E
:101DB000C6F83480394F31680DF103007062A7F521
:101DC00080604A681040364A104348602046FFF75A
:101DD00067FD40B930680021642223468562802077
:101DE000FFF714FD18B186F84080BDE8F883708DC8
:101DF0002C4A9146B0F5807F07D3FF2030853068AC
:101E0000416839401143416001E000F09CF8FF2532
:101E10002046FFF745FD0028BDD1716A306811F8F2
:101E2000012B8262708D013870857162308D0138AE
:101E30003085718DC1B1000416D18020002164224B
:101E40002346FFF7E3FC0028A5D1708DB0F5807F15
:101E500008D3306835854A464168394041EA09016E
:101E6000416001E000F06FF8708D0028D0D120466D
:101E7000FFF7FAFC00287FF48EAF306820210A4B70
:101E8000C16142681A40426086F84110002086F81D
:101E90004200A8E7A0000024DC010024009C00FC14
:101EA000D0200101D000FF0100E800FEFEE7FEE7C0
:101EB00004F10800002100F0F9B804F12800022123
:101EC00000F05EB9686C40F020006864202085F85E
:101ED0004100002085F8400085F8420070476FF30C
:101EE0005F2302EE103AB8EE422A00EE032A03EE18
:101EF000102AB7EE000A70476423FFF79FBBD9F89A
:101F0000481000254A467047C5F3CC0503F003038B
:101F10006C43022B00EE104AB8EE400A7047D9F825
:101F2000401000254A46704705F4FE052C4405691B
:101F300006EB056505F0FE452C44704782B2284645
:101F4000214664234847708D4FF000710022308590
:101F5000C0B2FFF747BCD8F8000080693840C01B0A
:101F6000B0FA80F04009B0427047D9F81C004946E9
:101F700040F40030C9F81C007047B969BA69C1F370
:101F8000032118F8011001F01F01C8407047D9F86B
:101F9000441000254A467047C7F8E000D7F8E00033
:101FA00070470568016821F00101016089F88460CB
:101FB000816870470843C9F848007047D9F80000A5
:101FC0000560C9F888A0C9F88880704722466FF07C
:101FD0007E43284600F01ABA0843C9F8400070470B
:101FE0000843C9F844007047515C01F01F01C84024
:101FF00080BDC2F34622B8EE433A32EE002A81EEAB
:10200000031A21EE021A02EE102AB8EE422A32EE2C
:10201000002A81EE022ABCEEC22A80ED002A704717
:102020006420FEF713BCF86940F40030F861704793
:10203000002164224346FFF7E9BB0A900A98D7F8CB
:10204000E000704704F12800012100F099B804F184
:102050000800012100F02AB804F12800002100F056
:102060008FB804F10800022100F020B8C1F3066126
:1020700002EE101AB8EE422A32EE000A81EE000A91
:10208000BCEEC00A10EE101A7047C2F3064202EE10
:10209000102AB8EE422A32EE002A81EE022ABCEE65
:1020A000C22A80ED012A704770470000F0B5914ABE
:1020B000936A03F00303032B04BF0120F0BD1368F0
:1020C00023F080631360BE4B5C6815682D0104D556
:1020D0005D682D1B022DF8D94EE090E87010976ACC
:1020E00027F47C37013D47EA043494626FF35F259F
:1020F0004FF47E4404EB46244FF0FE46A4B22C4439
:102100004FF4FE0505EB0C45FFF70EFF94634469A1
:10211000D56A25F0C0052C43D4628469D56A25F0C0
:1021200020052C43D4624FF6F875D46A24F01004CD
:10213000D462D46BC069AC4344EAC000D0630129C7
:10214000D06A40F01000D0624FF4001008BF4FF486
:102150008010002908BF4FF40020D16A0843D062E4
:10216000106840F08060106058681168090105D45B
:102170005968091A0329F8D30320F0BD0020F0BDE7
:10218000F0B55C4A936A03F00303032B04BF0120FC
:10219000F0BD136823F080531360C84B5C6815686A
:1021A000AD0004D55D682D1B022DF8D94EE090E8F6
:1021B0007010976A27F07C77013D47EA04549462D7
:1021C0006FF35F254FF47E4404EB46244FF0FE4648
:1021D000A4B22C444FF4FE0505EB0C45FFF7A4FE1A
:1021E00014644469D56A25F440652C43D46284693B
:1021F000D56A25F400752C43D4624FF6F875D46A7D
:1022000024F48074D462546CC069AC4344EAC000C6
:1022100050640129D06A40F48070D0624FF0807021
:1022200008BF4FF40000002908BF4FF48000D16AB6
:102230000843D062106840F0805010605868116800
:10224000890005D45968091A0329F8D30320F0BD81
:102250000020F0BD7047000098484168013141609E
:10226000704700BF10B52148214A016841F4700150
:102270000160106800F00F00062804D810680721DC
:1022800061F3030010601B481B4C016841F0010121
:1022900001600021016103682340036013681B078C
:1022A00004D51368072464F303031360134A8161A0
:1022B000C16101628262124AC262124A02634163D0
:1022C0008263C16302644164026822F48022026076
:1022D00001660D480068B1EB507F02D10B48012127
:1022E00001600B4843F2D201016010BD88ED00E0AF
:1022F00000200052004402587FEDF6EA000202027C
:102300000000FF01800201010010005C0881005103
:102310000040005210B5694B9869C1680269940782
:1023200008D58C0706D56FF002040461002483F8F9
:1023300034408469540708D54C0706D56FF004046F
:102340000461002483F834408469140708D50C071D
:1023500006D56FF008040461002483F83440C46992
:10236000D40608D5CC0606D56FF01004046100240D
:1023700083F83440C369D30704D0CB0702D06FF091
:102380000103036112F4025F04D00B0602D56FF45F
:1023900002530361D30504D50B0602D56FF4807395
:1023A0000361530604D54B0602D56FF04003036169
:1023B000920604D5890602D56FF02001016110BD97
:1023C000DC010024B0B50E48416E91B102680D4B9E
:1023D0000D4D91689268520FC1F342615C5C695C7B
:1023E0009B5CAA5C09011201B1FBF4F1B2FBF3F2B0
:1023F00001E001220121A0F86810A0F86A20B0BD18
:10240000F4000024643E00085C3E0008F0B5056856
:102410005E1CDFF8BCCFEC690C408C421AD0002E59
:10242000F9D0DCF80440A71A03249F4213D893B1D3
:102430002C686407EFD5402918BF8029EBD0EC69E0
:1024400024070AD4EC692405E5D5032420214FF4A0
:10245000006205E000242046F0BD01240822082186
:102460002A6255E8002F036822F4907243E80025A1
:102470000DB10568F5E7124A036853E8023F0568A5
:10248000134045E80236002EF6D1C26E012A09D16A
:10249000026852E8002F036822F0100243E800258A
:1024A000002DF5D12022C0F88C200022C2664267A0
:1024B00080F88420C0F89010CDE700BFDC01002434
:1024C000FEFFFFEFFEE70000C0B0B0484FF6FF028E
:1024D00001681140AE4A11430160FFF735F8AD4F76
:1024E000DFF8D48BDFF8D44BFFF747FD20600F20D7
:1024F000FEF734FB58B9D7F8F40040F00200C7F8F3
:10250000F400D7F8F40000F002000A900A98A248FC
:102510000268016852070FD5022262F302010160CE
:10252000DFF89C1B4A6850F8083C9B0404D44B68B5
:102530009B1AB3F57A7FF6D900210A9197490A6868
:1025400022F001020A600A6802F001020A92C268DF
:1025500042F44042C260C26802F440420A920A9ABF
:10256000C2689204FCD5D7F8F42042F00202C7F802
:10257000F420D7F8F42002F002020A920A9A00220C
:102580000A92C26842F44042C260C26802F4404209
:102590000A920A6842F001020A60096801F001012A
:1025A0000A910A99C1688904FCD5386900F038019C
:1025B000B86A102905D0182926D100F00300022896
:1025C00022D13868386900F0380018282BD1B86A51
:1025D00040F2F3310140386B522913D101466FF3B9
:1025E0005F21BF2904BF00F47E41B1F5007F09D10E
:1025F00000F4FE01B1F5803F04BF00F0FE40B0F1F1
:10260000807F56D0FEF71EF9386840F4803038607D
:10261000DFF8BC0D41683A689203D3D44268521A7D
:10262000642AF8D9EEE7386820F080703860DFF867
:10263000A00D41683A68920104D54268521A022AF4
:10264000F8D9DFE7B96A40F2F33291434FF6F872F6
:102650005231B96252493963F96A21F00101F962D4
:10266000796B914379630222F96A62F38301F9621B
:10267000F96A21F00201F962F96A41F48031F962E4
:10268000F96A41F40031F962F96A41F48021F96292
:10269000F96A41F00101F962396841F080713960ED
:1026A00041683A6892011CD44268521A022AF8D949
:1026B000A8E7786B4FF6F871084212D0F86A20F05C
:1026C0000100F862DFF8080D416842688A42FCD0D8
:1026D000786B4FF6F87188437863F86A40F0010030
:1026E000F8623048016811F00C0F0AD10168042229
:1026F00062F303010160016801F00F0104297FF416
:1027000081AFB969490604D4B969042262F306119C
:10271000B961F969490604D4F969042262F3061122
:10272000F961F969490504D4F969042262F30A21BF
:10273000F961396A490604D4396A042262F3061140
:102740003962B969090704D4B969082262F303013F
:10275000B961B96921F47061B961396889017FF59E
:1027600051AF39690322DFF8686C62F30201396105
:1027700041F2883271683B6903F03803182B13D09B
:1027800073685B1A9342F6D93CE700BF0CED00E09A
:102790000003FA05004402580C4802582C04005863
:1027A000BF02010100200052B96901F00F0109299F
:1027B00004D3B969082262F30301B961016801F029
:1027C0000F0105290AD30168042262F303010160A5
:1027D000006800F00F0004287FF414AFB86900F01F
:1027E0007000412804D3B869042161F30610B86170
:1027F000F86900F07000412804D3F869042161F3FE
:102800000610F861F86900F4E060B0F5806F04D953
:10281000F869042161F30A20F861386A00F0700059
:10282000412804D3386A042161F306103862FEF7A8
:102830008BFEFFF7A2FB317820601020002918BF23
:102840000F20FEF78BF900287FF4DCAEFFF76EFA5D
:10285000D7F8E000DFF87C9BD74A4FF4E131002540
:1028600040F00400C7F8E00002F53844D7F8E00073
:1028700000F00400FFF7E1FB40F08000FFF78CFB65
:1028800000F08000FFF7D9FB40F00200FFF784FB67
:1028900000F00200FFF7D1FB40F00100FFF77CFBE6
:1028A00000F001000A900A98C9E900411421C9E921
:1028B00002550C20C9E9045009F11800FDF7B5FFD5
:1028C000D9F8880000284CD189F884500AACB82186
:1028D00004F10800FDF7A9FF01200A900B9520469E
:1028E000FEF71AFA00287FF48DAED7F8F0004FF00B
:1028F000070A40F01000C7F8F000D7F8F00000F029
:1029000010003B903B98D7F8E00040F00100FFF743
:1029100043FB002700F001000990CDF8FCA0CDE9B1
:102920003D7702203C904FF400703B9009983BADFE
:10293000A248294600F5FA342046FDF78FFF122001
:102940003C902946CDE93D77CDF8FCA09C4F4FF453
:1029500080603B902046FDF781FFD9F80040D9F810
:1029600028502420C9F888002068002D20F001009C
:10297000206051D0280706D5D9F83800616821F4C5
:10298000004108436060E80706D0D9F82C00616870
:1029900021F4003108436060A80706D5D9F830005B
:1029A000616821F4803108436060680706D5D9F872
:1029B0003400616821F4802108436060E80606D590
:1029C000D9F83C00A16821F480510843A060A80612
:1029D00006D5D9F84000A16821F400510843A06051
:1029E000680610D5D9F84400616821F480110143CC
:1029F0006160B0F5801F06D1D9F84800616821F404
:102A0000C00108436060280606D5D9F84C0061680B
:102A100021F400210843606009F108052068694934
:102A200001402DCD184340EA0503D9F81C00634D41
:102A3000034319432160644B616821F44051114301
:102A40006160D9F81810D9F82020AC4218BF1143A2
:102A5000A2681A401143A160D9F82410E26A22F05A
:102A60000F020A43E262594A94421CBF584A9442F8
:102A70000BD0584A94421CBF574A944205D0574A3B
:102A800094421CBF564A944209D17A6D02F0070263
:102A9000062A1CD2DFF84C391A44127818E0AC42EE
:102AA0000DD0504A944202D04F4A94420FD17A6DD1
:102AB000C2F3C202062A0AD2DFF82C39ECE7BA6D5B
:102AC00002F00702062A02D20FF61013E4E7802272
:102AD000AC4213D0B0F5004F28D1082A37D8364F72
:102AE000DFE812F00900AB006D046D04AE006D0468
:102AF0006D046D04B300FEF70FFDAAE0402A40D03C
:102B0000042A41D0082A44D0102A4CD0202A6FD061
:102B1000022A40F05484FEF7E5FC396AC1F3021141
:102B200018F8011001F01F01C84036E0082A1BD830
:102B3000214FDFE812F0090092004404440495009C
:102B40004404440444049A00FEF7E6FC91E0102A91
:102B500000F09B80202A00F0A180402A164F40F010
:102B60002E844FF400409BE0102A00F0B480202A0D
:102B700000F0BA80402A104F40F021844FF400400A
:102B8000B4E04FF4004034E00AA8FEF739F80B989F
:102B900003E03BA8FEF77AF83C980028064F6CD07B
:102BA000D9F8241026E038688006104821D53A6804
:102BB000C2F3C102D0401CE000580040000C005895
:102BC00000440258F369FFCFFFF4FF1100440040B6
:102BD00000480040004C0040005000400078004099
:102BE000007C004000140140001001400090D00320
:102BF000C648C74FDFF8F42732F81110D9F804207F
:102C0000B0FBF1F002EB42018842C0F0D883B0EB98
:102C1000023F00F2D483010E000210EB520041F19A
:102C2000000100230024FDF770FBA0F54071B94AB4
:102C300091426ED3C9E91D44C4E3FEF777FC08E076
:102C40000AA8FDF7DDFF0B9803E03BA8FEF71EF88E
:102C50003C9890B1D9F8241022E0FEF767FC08E018
:102C60000AA8FDF7CDFF0B9803E03BA8FEF70EF88E
:102C70003C9810B1D9F8241038E00020C9E91D00B3
:102C80004FF00110C9F868004DE038688006A2488E
:102C900005D53A68C2F3C102D04000E09B489C4F82
:102CA000DFF8482732F81110B0FBF1F0D9F8041022
:102CB0004A0802EB40004FF6EF72B0FBF1F0A0F1D2
:102CC0001001914200F27B834FF6F0710140C0F396
:102CD000420008441DE0386880068F4805D53A68F0
:102CE000C2F3C102D04000E08848894FDFF8FC26DB
:102CF00032F811104FF6EF72B0FBF1F0D9F8041072
:102D000000EB5100B0FBF1F0A0F11001914200F294
:102D100056830021C9E91D114FF00111C9F868104F
:102D2000D9F80010C860D9F80000416821F490413A
:102D30004160816821F02A018160016841F0010150
:102D400001600021C9F8901074680168090708D56E
:102D5000DFF880564FF40011FFF738F900284DD105
:102D600028680168490708D5DFF868564FF48001E4
:102D7000FFF72CF900284ED128684FF0200AC9F837
:102D800088A0C9F88CA00024C9F86C40C9F870402C
:102D90004FF02408C9F888800126FFF702F921F0D6
:102DA00060418160FFF70EFBFFF708F9FFF7F9F8C4
:102DB00021F060618160FFF705FBFFF7FFF8DFF8A6
:102DC00030560168026821F0005122F001020260D1
:102DD00001605248C9F8644089F884402F60291D79
:102DE000834651C105F11000C9F888A01421FDF7F0
:102DF0001CFD95F8410058B3384668E0286850E853
:102E0000001F284621F0800150F8882B42E800136B
:102E1000002BF3D115E0286850E8000F296820F452
:102E2000907041E80002002AF5D1286850E8021F9E
:102E3000284621F0010150F88C2B42E80213002BA8
:102E4000F3D1002189F8841020210160FDF7FAFCFC
:102E500085F840400AAFB82107F10800FDF7E5FC0E
:102E600008200A900B943846FDF756FF00287FF49F
:102E7000C9AB2B4CD4F8E00040F00200C4F8E000ED
:102E8000D4F8E00000F00200099004203F900220F6
:102E90003E9001203D9012203C904FF440603B90CA
:102EA00009983BA91F4800F5FC30FDF7D7FCD4F882
:102EB000E80040F48000C4F8E800D4F8E80000F42A
:102EC000800009900998D5E90246D5E9000B85F8FC
:102ED0004180DFF8FC74012E016821F001010160DE
:102EE0002BF070610161816821F40041816003D1A0
:102EF00044F40041816017E0022E44F404418160F3
:102F000012D1416841F4006111E000BF00093D00A9
:102F10000058004000FD0F000090D003DB3FB000E0
:102F200000440258000C0058416821F400614160DF
:102F30005F4A05F11004416811434160C16821F402
:102F40000041C1601ECC1143202241EA0321C1602F
:102F5000296A21430160016841F0010101600021FB
:102F6000696485F84120296385F8421095F841107D
:102F700020297FF447AB95F8401001293FF442AB7C
:102F8000242285F841202023016821F001010160FD
:102F9000016821F48051016001680160016841F01D
:102FA0000101016085F84130002185F8401095F855
:102FB0004140202C7FF426AB85F84120026822F0A6
:102FC00001020260026822F470620260026842F04C
:102FD0000102026085F8413085F84010396349F6F6
:102FE0003F434FF08040C7E90603B96240F2E73241
:102FF000C7E9081297F8551029B1022187F8551032
:103000000268002126E0002087F8540000212D48A6
:103010008346D0F8E80040F00100CBF8E800DBF888
:10302000E80000F001000A900A981C20FDF7C2FD9C
:1030300020484FF080510160022087F85500E64893
:1030400000F52841B869411AB1FA81F102684FEAE6
:10305000511139D0B0F1804F1CBFE64B98421CD1C2
:1030600022F070023B6A1A43B0F1804F30D0E14B3E
:1030700098421CBFE04B98422AD0E14B98421CBFBB
:10308000DE4B984224D0DF4B984221D0DE4B984251
:103090001ED0DE4B98421BD01EE0D74B9842DFD0AB
:1030A000D64B9842DCD0D64B9842D9D0DCE700BF53
:1030B0000080000200E100E04C3E00080400002413
:1030C000DC0100240044025822F070023B6A1A43DB
:1030D000BB6A22F440721A433D6B22F08002FB6906
:1030E0007C6A2A430260C4628362002900F0418145
:1030F000F96A0163012141610269D20703D00269C3
:1031000022F00102026187F8601087F8561087F8F4
:10311000571087F8581087F8591087F85A1087F811
:103120005B1087F85C1087F85D1087F85E1087F8F1
:103130005F1087F8551097F8541001293FF462AAE0
:10314000022187F85510B24B40F4806482681A401F
:103150008260012287F8552087F8551087F854209F
:10316000A64A43688168944208BF23F47003B0F113
:10317000804F23F0700343600CD09E4B98421CBFDD
:103180009D4B984206D09E4B98421CBFA14B984243
:1031900040F00A8121F080018160002087F854000E
:1031A0008C4C012087F855002046FEF799FBFEF76E
:1031B00037FF9AA120462222FEF79EFEFEF730FF3F
:1031C0002046FEF78DFB002800F0E4803BA8BFEE10
:1031D00000BB9FED9B9A9FED9BAA9B4CDFF870B2C2
:1031E000DFF870827B4DDFF870929FEDA6CA011D5B
:1031F0000230089107900AA8011D0230069105903F
:10320000079800903E7D089801900AA8DDE9051214
:103210003BABFEF75DFD1EB33889BDF82810081AD8
:10322000ADF82800BDF82A107889081AADF82A00F0
:10323000BDF82C10B889081AADF82C00BDF8EC10B8
:10324000F889081AADF8EC00BDF8EE10388A081AB3
:10325000ADF8EE00BDF8F010788A081AADF8F0006D
:10326000BDF92800BDF92A10BDF92C20BDF9ECA04C
:10327000BDF9EE60BDF9F07000EE100A01EE102A03
:10328000B8EEC00AB8EEC11A20EE09DA00EE101A44
:1032900021EE09FAB8EEC00A20EE09EA2EEE0E0A77
:1032A000ADEE0D0AAFEE0F0AB7EEC00AB1EEC08B5D
:1032B000B4EE488BF1EE10FA56D600EE107AB7EE67
:1032C000CE1A204661498DED001BB8EEC00AC0EE53
:1032D0000A9A00EE106AB8EEC00AC0EE0AAA00EE22
:1032E00010AAB8EEC00AC0EE0ACAB7EECF0A8DED3A
:1032F000020BB7EECD0A53EC102BD8472046C0473F
:10330000FEF71CFEB7EEE90AB7EEEA1A204653A113
:103310008DED020BB7EEEC0A8DED001B53EC102B7C
:10332000D8472046C047FEF709FE38EE0B0B58A0E1
:1033300055A1B7EEC00BB0EEC01AB7EEC00A53EC01
:10334000102BB4EE4C1AF1EE10FAD8BF08460090DC
:1033500052A12046D8472046C047FEF7EFFDC820BF
:10336000FDF774FA1A4F4BE700F0B8F8B0EE408B57
:10337000A3E7224988423FF4BBAE224988423FF48A
:10338000B7AE214988423FF4B3AE204988423FF4AA
:10339000AFAEAFE60F4846492B22FEF7ADFD4FF426
:1033A0007A70FDF753FAFAE71B4B98423FF4F2AEFE
:1033B000144B984218BF90423FF4ECAEEDE600206B
:1033C000C9E91D004FF00110C9F86800FDF73AFA8D
:1033D000DC010024F400002400580040020408101E
:1033E00020400000463E0008403E0008283E0008FD
:1033F000A000002400040040000800400004014038
:10340000000C0040004001400048014000440140E1
:103410008800CEFF00180040000001403D3D3D20E7
:103420004D505536303530204D6F74696F6E2044E5
:103430006574656374696F6E203D3D3D0D0A000043
:10344000000080380000034309000024923F000878
:10345000B5340008D10200083D1600084779726FA4
:103460003A20583A25372E326620593A25372E32DF
:1034700066205A3A25372E326620647073207C20ED
:1034800000000000CDCCCC3D5B5354494C4C5D005A
:103490005B4D4F56494E475D000000004D6F74690B
:1034A0006F6E3A2025362E3366672025730D0A008D
:1034B000243F00080FB4084B10B504A902AA0398D2
:1034C00000F016F9044602A9002000F0A8FC2046EE
:1034D00010BC5DF814FB00001F3E000800B52DED88
:1034E000028B83B0B1EEC08B18EE100A18EE901A62
:1034F0008DED008B002818BF0120084320F000400C
:10350000C0F17F6000F1E040C00F14D010EE101A3F
:1035100010EE900A8DED000B002918BF0121084321
:1035200020F00040C0F17F6000F1E040C00F04BF18
:10353000012000F015F8B0EE480B03B0BDEC028B93
:1035400000BD02E008C8121F08C1002AFAD1704766
:103550007047002001E001C1121F002AFBD1704713
:103560000149086070470000000000242DE9FF5F5A
:1035700082B00021DDE90430020DDDF840B00343E4
:1035800018D044F61050A2F2FF324243151411989D
:1035900001281FD0A5EB0B00401C5FEA000A4FF08A
:1035A00000064E4FDFF83891B046504615D5CAF1A7
:1035B000000413E0119801244AA3012801D16FEA05
:1035C0000B010298119AC0E90031C0E9024206B02D
:1035D000BDE8F09FCBF10000DFE704460021404A40
:1035E000491842EB0450CDE9001012E0E00707D083
:1035F00032463B4640464946FCF75FFF80468946D7
:1036000032463B4610461946FCF757FF06460F4622
:103610006410002CEAD1DDE90401DDE90023BAF1F0
:10362000000F06DAFCF749FF42464B46FCF745FF20
:1036300005E0FCF7B4FF42464B46FCF7B0FF0446FA
:103640000E460022284BFDF731F803D84FF0FF302B
:10365000014607E00022254B20463146FCF786FE56
:10366000FDF70CF8102409E0002C0ADB0A220023E5
:10367000FCF74BFE039B30321A55641E50EA0102E0
:10368000F2D1641C039AC4F111031444119A012A63
:1036900003D0012208430DD10AE0084304D00020E2
:1036A0004FF0110B119072E7A3EB0B056D1E0DE0AF
:1036B0005B4504DD4FF0000205F1010504E003DA8B
:1036C0004FF00002A5F10105002AECD002981199F3
:1036D000C0E90231C0E9004579E70000000014406C
:1036E0000000F03F300000000000F0430000E03F29
:1036F0002DE9FF4F95B09B468946064600250FE20F
:10370000252877D100242746F84A0121059400E0B6
:10371000044316F8013F203B01FA03F01042F7D1B1
:1037200030782A2811D06FF02F033078A0F13002C2
:10373000092A16D8059A44F0020402EB820203EB30
:1037400042021044761C0590EFE759F8042B0592CD
:10375000002A03DA504244F40054059044F0020475
:10376000761C30782E2816D116F8010F44F0040488
:103770002A280DD06FF02F023078A0F13003092BEA
:1037800009D807EB870302EB4303C718761CF3E75E
:1037900059F8047B761C30786C280FD006DC4C2856
:1037A00017D068280DD06A2814D104E0742810D0EE
:1037B0007A280FD10DE044F400140AE044F4801498
:1037C00001E044F440147278824202D104F580147E
:1037D000761C761C307866280BD013DC582877D0FE
:1037E00009DC002875D04528F6D04628F4D04728B3
:1037F0001AD19DE118E0632835D0642879D0652876
:1038000012D195E1702873D008DC6728F1D06928BF
:103810006FD06E280DD06F2806D1B5E073282CD05C
:10382000752875D0782874D05A46179990476D1C22
:1038300075E1C4F30250022809D003280DD0D9F84D
:10384000001004280DD00D6009F1040967E1D9F8D2
:103850000010EA17C1E90052F6E7D9F800100D8010
:10386000F2E70D70F0E719F8041B8DF80010002046
:103870008DF80100EA46012003E059F804AB4FF04F
:10388000FF3061074FF0000102D40DE008F10101A3
:103890008846B9420FDA8045F8DB1AF8081000298B
:1038A000F4D108E008F1010188468142FADB1AF8F8
:1038B00008100029F6D105985B46A0EB08072146C1
:1038C0003846179A00F094FA284400EB080507E000
:1038D0004DE029E10DE01AF8010B5A46179990477F
:1038E000B8F10108F7D25B4621463846179A13E132
:1038F00042E00A220092C4F302524FF0000A022A68
:1039000008D059F804CB032A4FEAEC710AD00DE035
:1039100029E02AE009F1070121F00702F2E802C1DB
:10392000914609E00FFA8CFC4FEAEC71042A03D1AE
:103930004FFA8CFC4FEAEC71002907DA0A460021A5
:10394000DCF1000C61EB02012D2202E0220504D51E
:103950002B228DF80420012203E0E20701D020226F
:10396000F7E7904659E00A2102E010220DE010210D
:103970004FF0000A00910BE010224FF0000A44F0D3
:1039800004040827009203E008224FF0000A009286
:10399000C4F30252022A05D059F804CB0021032AAD
:1039A00008D009E009F1070121F00702F2E802C19D
:1039B000914605E01FFA8CFC042A01D10CF0FF0CA3
:1039C0004FF00008220728D5702806D0009B83F00E
:1039D000100353EA0A0305D00EE040228DF80420BC
:1039E000012208E05CEA010206D030228DF80420B2
:1039F0008DF8050002229046009B83F0080353EAED
:103A00000A030AD15CEA010201D1620705D530221E
:103A10008DF804204FF001087F1E582804D034A0F0
:103A200003900EA802900DE036A0F9E753466046D9
:103A3000009AFCF76AFC84460398825C0298401E58
:103A4000029002705CEA0100F0D1029806A9081AFF
:103A500000F1200A600702D524F4803400E0012739
:103A6000574502DDA7EB0A0000E0002000EB0A0149
:103A7000009005984144401A0590E00306D45B4647
:103A80002146179A059800F0B3F90544002706E08F
:103A900001A85A46C05D179990476D1C7F1C474589
:103AA000F6DBE0030CD55B462146179A059800F03B
:103AB0009FF9054404E030205A46179990476D1C41
:103AC0000099481E00900029F5DC08E00298029950
:103AD0005A460078491C0291179990476D1CBAF11B
:103AE0000001AAF1010AF1DC65E1000009280100EA
:103AF0003031323334353637383961626364656664
:103B00000000000030313233343536373839414225
:103B1000434445460000000000F058F90544761C77
:103B2000307800287FF4ECAD19B02846BDE8F08F5E
:103B3000620700D4062709F1070222F0070CFCE80F
:103B40000223E14603F000485FEA080C02D00FF2BE
:103B5000702C0DE05FEA045C02D50FF2682C07E0E0
:103B60005FEAC47C02D00FF2602C01E0AFF2700C6F
:103B70004FF0FF3823F00043CDF850C065280CD03B
:103B800006DC452809D046281DD047283DD13DE018
:103B9000662818D067287ED138E00021112F01DB7C
:103BA000112000E0781CCDE9000106A90EA8FFF75E
:103BB000DDFCDDE90F010E9A03910021009207F16F
:103BC000010A04914DE04FF000400097CDE901104B
:103BD00006A90EA8FFF7CAFCDDE90F0203920E9BAF
:103BE00011990022DDF80CA00093049211B9791C00
:103BF00000EB010AB7EB0A0004D4C0F1FF3007F173
:103C0000010A0490AAEB0700019044E0012F00DABA
:103C100001270021112F01DD112000E03846CDE9F8
:103C2000000106A90EA8FFF7A1FCDDE90F010E9A1D
:103C30000391002104910092BA4621070CD4039904
:103C4000514500DA8A46BAF1010F05DD009AAAF162
:103C50000101515C302908D0B84202DA10F1040F9A
:103C600006DA0121CDE9011015E0AAF10101E9E729
:103C7000002805DC049901440491AAEB000102E04C
:103C8000411C514500DD8A460499401A401C0190B0
:103C90004FF000400290200704D40198504501DB0A
:103CA000CDF8048000208DF84F0002980DF14F07E9
:103CB000B0F1004F25D02B200E9002984FF0020853
:103CC00000280CDA404202902D200E9007E00A21D5
:103CD0000298FCF704FB3031029007F8011DB8F19F
:103CE0000001A8F10108F2DC02980028EFD1791E4A
:103CF0000E980870307800F0200040F0450007F87A
:103D0000020D12A8C01B00F107081498007800B13A
:103D1000012000EB0A01019801EBE0710598414494
:103D2000401A401E0590E00306D45B462146179AD0
:103D3000059800F05DF805441498007818B15A46CB
:103D4000179990476D1CE00324D55B462146179ACE
:103D5000059800F04DF805441CE00498002807DBA6
:103D6000DDE90301884203DD0098405C179901E01A
:103D7000179930205A469047049805F10105401CD8
:103D800004900198401E019004D12E205A461799A4
:103D900090476D1CBAF10001AAF1010ADDDC05E0D3
:103DA00017F8010B5A46179990476D1CB8F100019E
:103DB000A8F10108F4DC5B462146179A0598ABE6AA
:103DC0002D0000002B000000200000002DE9F04134
:103DD000044600251E461746880404D405E03946EB
:103DE0002020B0476D1C641EF9D52846BDE8F0813F
:103DF0002DE9F041044600251E469046C80301D532
:103E0000302700E02027880404D505E041463846E5
:103E1000B0476D1C641EF9D52846BDE8F0810A68DC
:103E2000531C0B6010707047010002000400060074
:103E300008000A000C001000200040008000000173
:103E40000104081020400004081020400000000079
:103E5000010203040102030406070809010101032A
:103E60000701000008040204080101014D50553605
:103E7000303530205265616479210D0A0D0A004DFC
:103E800050553630353020436F6E6E65637465640F
:103E9000210D0A0043616C6962726174696F6E2062
:103EA000636F6D706C657465210D0A005A2D617821
:103EB000697320617665726167653A202564202800
:103EC00073686F756C64206265207E2B31363338E1
:103ED0003420666F7220757072696768742C207E5A
:103EE0002D313633383420666F7220696E766572F4
:103EF000746564290D0A0044657465637465643AE9
:103F00002053656E736F72207570726967687420D4
:103F1000285A2D6178697320706F736974697665AA
:103F2000290D0A0053797374656D2048616C7465BE
:103F3000642120436865636B204D50553630353021
:103F400020636F6E6E656374696F6E2E0D0A00419B
:103F50006363656C204F6666736574733A20583AE4
:103F600025642C20593A25642C205A3A25640D0AE0
:103F7000004779726F204F6666736574733A2058F4
:103F80003A25642C20593A25642C205A3A25640D90
:103F90000A004163633A20583A25372E336667207A
:103FA000593A25372E336667205A3A25372E33661D
:103FB00067207C2000000000D83F0008000000249B
:103FC0000800000042350008E03F00080800002417
:103FD0003806000052350008000000000090D003B1
:040000050800029954
:00000001FF
