:020000040800F2
:1000000048060024AD0200087F1A0008F116000817
:100010007D1A00084108000899200008000000002F
:10002000000000000000000000000000291E000881
:1000300043080008000000007D1C00082D1E000879
:10004000C7020008C7020008C7020008C70200086C
:10005000C7020008C7020008C7020008C70200085C
:10006000C7020008C7020008C7020008C70200084C
:10007000C7020008C7020008C7020008C70200083C
:10008000C7020008C7020008C7020008C70200082C
:10009000C7020008C7020008C7020008C70200081C
:1000A000C7020008C7020008C7020008C70200080C
:1000B000E91E0008C7020008C7020008C7020008BE
:1000C000C7020008C7020008C7020008C7020008EC
:1000D000C7020008C7020008C7020008C7020008DC
:1000E000C7020008C702000800000000C70200089D
:1000F000C7020008C7020008C7020008C7020008BC
:10010000C7020008C7020008C7020008C7020008AB
:10011000C7020008C7020008C7020008C70200089B
:10012000C7020008C7020008C7020008C70200088B
:10013000C7020008C7020008C7020008C70200087B
:1001400000000000000000000000000000000000AF
:10015000C7020008C7020008C7020008C70200085B
:10016000C7020008C7020008C7020008C70200084B
:10017000C7020008C7020008C7020008000000000C
:10018000C7020008C7020008C7020008C70200082B
:10019000C7020008C7020008C7020008C70200081B
:1001A000C7020008C7020008C7020008C70200080B
:1001B000C7020008C7020008C7020008C7020008FB
:1001C000C7020008C7020008C7020008C7020008EB
:1001D000C7020008C7020008C7020008C7020008DB
:1001E000C7020008C7020008C7020008C7020008CB
:1001F000C7020008C7020008C7020008C7020008BB
:10020000C7020008C7020008C7020008C7020008AA
:10021000C7020008C7020008C7020008C70200089A
:10022000C7020008C7020008C7020008000000005B
:10023000C7020008C702000800000000C70200084B
:10024000C7020008C7020008C7020008C70200086A
:10025000C7020008C7020008C7020008C70200085A
:10026000C7020008C7020008C7020008C70200084A
:10027000C7020008C7020008C7020008000000000B
:10028000C7020008C7020008C702000800000000FB
:1002900000000000C7020008DFF80CD000F01EFAD2
:1002A000004800479D200008480600240648804773
:1002B00006480047FEE7FEE7FEE7FEE7FEE7FEE74B
:1002C000FEE7FEE7FEE7FEE7391E00089902000898
:1002D000421C10F8011B0029FBD1801A704730B571
:1002E0000B46014600202022012409E021FA02F5F4
:1002F0009D4205D303FA02F5491B04FA02F528448E
:10030000151EA2F10102F1DC30BD2DE9F05F0546BA
:10031000002092469B4688460646814640241BE0C4
:10032000284641464746224600F0F9F953465A46C8
:10033000C01A914110D311461846224600F0E0F948
:100340002D1A67EB01084F4622460120002100F0DC
:10035000D7F917EB00094E41201EA4F10104DFDCA0
:10036000484631462A464346BDE8F09F2DE9FE4FF8
:10037000804681EA0300C00F0C46009021F0004146
:1003800023F00045B8EB0200A94105D240462146C2
:1003900090461C460B46024623F00040104347D0CF
:1003A000270DC7F30A00C3F30A510290401A0190C7
:1003B00040286BDAC3F3130040F4801B0098924688
:1003C00020B10023D2EB030A63EB0B0B01985946D3
:1003D000C0F14002504600F093F906460D465046E3
:1003E0005946019A00F0ABF910EB08006141002476
:1003F00087EA115284EAE7731A4340D0009A62B345
:10040000019A012A4FEA075215DC001B61EB020139
:100410004FF0004202EA0752CDE90042001C41F5CC
:10042000801132462B4600F0ABF903B0BDE8F08FE7
:1004300040462146F9E7001B61EB0201001C41F533
:10044000801300185B412018A2F5001747EB030149
:1004500040EAD570B6196D4111E06D084FEA3606D5
:1004600045EAC0754FEA0752001B61EB0201001C10
:1004700041F5801149084FEA3000001951413246D8
:100480002B4603B0BDE8F04F00F06BB90098012295
:1004900040000023D0EB020263EBE073009821469A
:1004A0004FEAE074B8EB000061EB0401E9E783F088
:1004B00000435BE781F0004158E72DE9FE4F81EAF8
:1004C000030404F0004421F0004100944FF0000BBD
:1004D00023F0004350EA01045ED052EA03045BD0EB
:1004E000C3F30A54C1F30A552C44A4F2F334019423
:1004F000A0FB0254C1F3130141F48011C3F31303B1
:1005000043F4801301FB024400FB034E840A970A64
:1005100044EA815447EA8357A4FB076802958D0A91
:1005200005FB07854FEA932C04FB0C542705029D1D
:100530004FEA065847EA1637B5EB08056EEB070C8D
:10054000870E920E47EA811742EA8312A7FB020147
:10055000B6EB0B0164EB00042B0D43EA0C335E1881
:1005600044EB1C50DA465146E7FB0201C5F3130485
:100570004FEA0B3343EA14534FEA0432019C43EA37
:100580000603A4F10C040294009CCDE900B400F031
:10059000F7F803B0BDE8F08F00200146F9E72DE938
:1005A000F04D81EA030404F0004B21F000451446AD
:1005B0004FF0000A23F0004150EA050220D054EA2F
:1005C00001021DD0C5F30A570246C5F31303C1F358
:1005D0001300C1F30A5640F4801543F48013A7EBCF
:1005E0000608101BD64608F2FD3873EB050002D34F
:1005F00008F1010801E092185B41B8F1000F03DA3D
:1006000000200146BDE8F08D00204FF48011064621
:1006100084460EE0171B73EB050705D3121B63EB33
:10062000050306434CEA010C49084FEA30009218D2
:100630005B4150EA0107EDD152EA030012D082EA91
:10064000040083EA0501084305D0101BAB4106D224
:100650000122002306E000224FF0004302E06FF089
:10066000010253101AEB06004CEB085110EB0A0084
:1006700041EB0B01BDE8F04D00F073B8C1F30A5235
:10068000C1F3130140F2FF3341F480119A4202DAC0
:1006900000200146704740F233439A42A2F23342AF
:1006A00002DC524200F03BB800F02AB830B5041E1C
:1006B00071F1000404DB4FF00044404264EB01019F
:1006C000141E73F1000405DB1C464FF00043524238
:1006D00063EB0403994208BF904230BD064C074DBE
:1006E00006E0E06840F0010394E807009847103402
:1006F000AC42F6D3FFF7D4FD483F0008683F00083E
:10070000202A04DB203A00FA02F1002070479140D1
:10071000C2F1200320FA03F3194390407047202AC6
:1007200004DB203A21FA02F00021704721FA02F39B
:10073000D040C2F120029140084319467047202A58
:1007400006DBCB17203A41FA02F043EAE07306E0F9
:1007500041FA02F3D040C2F1200291400843194609
:10076000704710B5141E73F1000408DA401C41F103
:10077000000192185B411A4301D120F0010010BD25
:100780002DE9F04D92469B4611B1B1FA81F202E09B
:10079000B0FA80F220329046FFF7B2FF04460F46CF
:1007A00040EA0A0041EA0B0153465A46084313D077
:1007B000114653EA010019D0C8F140025046FFF734
:1007C000AEFF05460E46504659464246FFF798FF93
:1007D000084305D0012004E020463946BDE8F08DED
:1007E0000020054346EAE0762C4337430A98630528
:1007F000E40AA0EB08000022FD0A44EA47540A304C
:1008000002D500200146E9E7010510196941DDE93B
:10081000084500196941BDE8F04DA2E7D2B201E0F8
:1008200000F8012B491EFBD270470022F6E710B5F5
:1008300013460A4604461946FFF7F0FF204610BD4E
:10084000FEE77047EFF3108072B6FEE7D84901303B
:100850008A688B689B1A8342FBD370472DE9FC4F53
:100860005D4A0A244FF000094FF0000A90425B4AAB
:1008700008BF092402444FEAB223092B38BF4FEACC
:10088000B224009400220E6836FA02F300F0A18030
:100890000123934016EA030B00F09580D1F804E0A1
:1008A0000EF0030CACF10105012D15D8032404FA58
:1008B00009F58468CF68AC4307FA09F76FEA0508C1
:1008C0003C438460CEF300144768944027EA030356
:1008D0002343436053000CE0032303FA09F3BCF104
:1008E000030F6FEA03084B4603D14B464FF0030C4E
:1008F00020E0C4688D6804EA08049D402C43C4606D
:10090000BCF1020F16D10AF01C040F2505FA04FCF5
:100910006FF0030505EA520707443D6A25EA0C0C0F
:100920000D6905FA04F444EA0C043C62D1F804E0D1
:100930000EF0030C04680CFA03F304EA08042343E2
:1009400003601EF4403F3ED0264C274E236843F000
:100950000203236023680F2403F002030193019D27
:100960000AF00C0322F003059C40AF5927EA040467
:10097000009F07FA03F32343AB514FF0B0463368AF
:100980004D6843EA0B04EF0258BF23EA0B043460BE
:10099000134EAF02336843EA0B0458BF23EA0B043B
:1009A0003460AF03D6F8803043EA0B0458BF23EA23
:1009B0000B04C6F88040ED03F36F43EA0B0458BF05
:1009C00023EA0B04F46709F102090AF1040A01326F
:1009D00059E7BDE8FC8F00BF002402580000FEA7C5
:1009E00004000058F4440258080400582DE9F84364
:1009F000554C054694F84100202814D10E46A1B16B
:100A000094F8400001280ED0012084F840001746D9
:100A1000012119226648D0F808804FF4004043466F
:100A200000F0F0FE30B1BDE8F8834FF40070606470
:100A3000BDE8F883222084F841004FF00009444AC1
:100A4000402084F84200C4F8449067856662C4F888
:100A500034903E4E20684168314011434160404629
:100A600000F01AFF48B92068E9B264224346816267
:100A70004020002100F0C6FE18B184F84090BDE887
:100A8000F883608D334DB0F5807F04D3FF2020853F
:100A900005F5105006E0608D05F592312085C0B255
:100AA00041EA004021684FF0FF0906F580674A6877
:100AB000324005F5803610434860042001F09DF86F
:100AC0000028B0D12068616A406A0870608D0138E2
:100AD0006085606A01306062208D01382085618DFB
:100AE000C1B1000416D1802001F087F800289AD106
:100AF000608DB0F5807F03D3A4F82890284604E0E9
:100B0000608D2085C0B246EA004021684A683A40BC
:100B100010434860608D0028CFD1404600F0A0FE11
:100B200000287FF480AF206820210B4BC161426810
:100B30001A40426084F84110002084F8400084F894
:100B40004200BDE8F88300BFA0000024009800FC2C
:100B5000D0200100D000FF0100E800FE10B51149CF
:100B60004FF47A720968B1FBF2F14A1E0021B1EB31
:100B7000126F01D0012412E00B4BF0245A600B4A93
:100B8000147099600721012419600F2807D84FF0CD
:100B9000FF300F2100F00EF80548047100242046B4
:100BA00010BD00BF0400002410E000E023ED00E0D1
:100BB000DC01002410B500F00F03104C0E4A043B7A
:100BC00023440C33B0F1FF3FC8BF831820684FF0B7
:100BD000FF34C0F30220C21E80F0070038BF00229D
:100BE000042828BF042004FA00F021EA0000904005
:100BF0000001187010BD00BF00E400E00CED00E043
:100C0000B0B51C498B6A8A6ACC6ACD6BC2F30532D7
:100C1000B2B1C4F3001400F061FF15D0BBB90B688A
:100C20009B0651BF9FED161A0B68C3F3C103154C09
:100C300042BF24FA03F301EE103AB8EE411A08E07D
:100C40000021C0E9001112E09FED0C1A01E09FEDB8
:100C50000A1A8B6B9FED0C3A00F029FF8A6B00F0AB
:100C6000B0FF8A6B00F0FBFF896B00F0E9FF816049
:100C7000B0BD00BF004402580024744A20BCBE4BE3
:100C80000024744C0090D00300000039B0B51C491A
:100C90008B6A8A6ACC6A4D6CC2F30552B2B1C4F356
:100CA000002400F01BFF15D0BBB90B689B0651BF99
:100CB0009FED161A0B68C3F3C103154C42BF24FA0B
:100CC00003F301EE103AB8EE411A08E00021C0E942
:100CD000001112E09FED0C1A01E09FED0A1A0B6C57
:100CE0009FED0C3A00F0E3FE0A6C00F06AFF0A6C1C
:100CF00000F0B5FF096C00F0A3FF8160B0BD00BF3C
:100D0000004402580024744A20BCBE4B0024744C9A
:100D10000090D003000000392DE9F8430446C07864
:100D2000A74F00071CD5A06E4FEA3051032908D801
:100D3000DFE801F002090C11F96941F40031F961B1
:100D400009E001260DE000F076FF01E000F09DFED5
:100D5000064630B9A06E396C21F44011084338645E
:100D600000266078B946C00701D1354620E0A06D65
:100D700004280ED83546DFE800F0030F09121200F0
:100D8000F869354640F40030F86108E000F04EFFA5
:100D900004E0012501270CE000F072FE05462F4615
:100DA0003DB9A06D00F090FE21F0070100F0FCFEBF
:100DB0003746607880071ED5E06D4FEAB0100428F2
:100DC0000AD8DFE800F0030C060F0F0000F0BCFEAD
:100DD00008E000F02BFF04E0012501260CE000F004
:100DE0004FFE05462E463DB9E06D00F06DFE21F444
:100DF000E07100F0D9FE3E466078400702D4B0466C
:100E00004F4623E0D4F8A8004F464FEA705004281C
:100E10000AD8DFE800F0030D0610100000F0F2FE23
:100E200009E000F003FF05E001254FF001080DE0A7
:100E300000F026FE0546A84645B9D4F8A800B96CCE
:100E40000025B04621F460010843B86460780007CB
:100E500020D5D4F8AC004FEA306004280AD8DFE887
:100E600000F0030C060F0F0000F0CCFE08E000F0CD
:100E7000DDFE04E0012501270DE000F001FE05463E
:100E80002F4645B9D4F8AC0000F023FE21F0E06114
:100E900000F07EFE4746E07880071DD5E06C4FEA03
:100EA0003010032806D8DFE800F00B02080B00F032
:100EB0004BFE05E0012501260FE000F0BCFE0546D3
:100EC0002E4655B9E06CD9F83C1000254A4621F071
:100ED00030010843C9F83C003E466078C0061ED584
:100EE000206E4FEA303004280AD8DFE800F0030C07
:100EF000060F0F0000F028FE08E000F097FE04E067
:100F0000012501270CE000F0BBFD05462F463DB949
:100F1000206E00F0D9FD21F4E04100F045FE374697
:100F2000607880061BD5606E4FEA3040052807D8F0
:100F3000DFE800F00C03090C0C0C00F072FE04E07A
:100F4000012501260CE000F067FE05462E463DB95E
:100F5000606E00F0B9FD21F4E02100F025FE3E4670
:100F6000607840061DD5D4F8B0004FEA30700528EF
:100F700007D8DFE800F00C03090C0C0C00F051FE60
:100F800004E0012501270DE000F046FE05462F464E
:100F900045B9D4F8B00000F09CFD21F0E04100F02C
:100FA000F7FD37466078000618D5206F68B1B0F1BC
:100FB000005F07D0B0F1805F22D100F0C5FD04E0F2
:100FC0001044025800F02DFE05462E463DB9206F14
:100FD00000F07AFD21F0405100F0E6FD3E46E07859
:100FE000C00702D131464F461DE0A06C4F46032892
:100FF00009D8DFE800F00E020B0E00F003FE08E057
:1010000001250126EBE7012501210CE000F013FE8C
:10101000054629463DB9A06CF96B002521F0030176
:1010200008433146F8632068420201D40E4615E0B9
:10103000D7F8F02342F48072C7F8F023DFF8542F7A
:101040009368D7F8F063F60506D49668F61A642E0E
:10105000F7D90325032601E02E4675B1C00764D0F9
:10106000E06F4FEAF000052850D8DFE800F05503A4
:101070005255555500F0D5FD4DE0D9F86030D4F803
:10108000B4C083EA0C0313F4407F12D0D9F8603067
:10109000D9F860504E4645F48035C9F8605023F4C5
:1010A0004073D9F8605025F48035C9F86050C9F80C
:1010B0006030BCF5807F0FD1976841F288334D4690
:1010C000D9F86050AD0707D49568EE1B03259E4202
:1010D0004FF00306F3D9C1E7D9F80030AD4A0CF45C
:1010E00040754E4623F47C5302EA1C12B5F5407F4E
:1010F0006FF31F3C08BF1343C9F800300025D9F82F
:10110000602042EA0C02C9F860208FE70125012720
:101110000CE000F081FD05462F463DB9E06F00F080
:101120001BFD21F0380100F043FD37462078800791
:1011300019D5A06F052807D8DFE800F00C03090CCB
:101140000C0C00F06EFD04E0012501260CE000F01F
:1011500063FD05462E463DB9A06F00F0FDFC21F071
:10116000070100F025FD3E46207840071DD5D4F844
:101170009400052808D84F46DFE800F00D030A0D5B
:101180000D0D00F04EFD05E001254FF001080DE0CA
:1011900000F042FD0546A84645B9D4F89400B96C64
:1011A000002521F007010843B864B0462078800686
:1011B0001DD5D4F890004FEA3070052807D8DFE835
:1011C00000F00C03090C0C0C00F05AFC04E00125A3
:1011D00001270DE000F059FC05462F4645B9D4F82B
:1011E000900000F0B9FC21F0E04100F0E1FC47463E
:1011F000207840061DD5D4F89C004FEAB020052881
:1012000007D8DFE800F00C03090C0C0C00F038FCE8
:1012100004E0012501260DE000F037FC05462E46CE
:1012200045B9D4F89C0000F054FC21F4E05100F0E2
:10123000AFFC3E46207800061DD5D4F8A0004FEA4A
:101240007030052807D8DFE800F00C03090C0C0CFF
:1012500000F016FC04E0012501270DE000F015FC6C
:1012600005462F4645B9D4F8A00000F032FC21F421
:10127000604100F08DFC37462068010713D5D4F893
:101280008400B0F5805F06D100F0FFFB002818BF96
:101290000127D4F88400D9F844104A4621F440517B
:1012A00000F086FC2068C10613D5D4F89800B0F58C
:1012B000807F06D100F0E9FB002818BF0127D4F891
:1012C0009800D9F848104A4621F4407100F060FCBB
:1012D000206800031AD5D4F8A400B0F5003F0BD065
:1012E000B0F5803F05D0002840F0F48000F0C8FB46
:1012F00001E000F0CAFB05462E4645B9D4F8A4002B
:1013000000F0E7FB21F4403100F042FC3E46A078BB
:1013100040071BD5D4F88800B0F5401F0CD0B0F5BD
:10132000001F06D0B0F5801F40F0D78000F00CFC05
:1013300002E000F071FC05462F4645B9D4F888005C
:1013400000F00AFC21F4401100F032FC3746A0788E
:10135000C00716D0206DB0F5803F03D098B900F0DB
:10136000F3FB02E000F067FC05462E466DB9206DE8
:10137000D9F83C1000254A4621F480310843C9F8C9
:101380003C003E4601E0012501262168880003D487
:10139000606808E0CFFFFF0000F077FB002818BF6F
:1013A0000126D4E900108A031BD5D4F880206FF001
:1013B000010303EB3223022B0BD34FEA322343B159
:1013C000012B40F08D80D9F81C3043F40033C9F86C
:1013D0001C303DB9D9F8443023F440731A43C9F89E
:1013E00044203546CA0207D5626FD9F8403023F051
:1013F00000431A43C9F84020CA0008D5D4F8B820E1
:10140000D9F8003023F480431A43C9F800208A0237
:1014100007D5E26ED9F8403023F080731A43C9F83B
:1014200040204A000CD5D9F8002022F40042C9F827
:101430000020D4F8BC20D9F800301A43C9F80020A5
:10144000CA0F07D0626DD9F83C3023F040531A43DD
:10145000C9F83C20090208D5D4F88C10D9F84420EA
:1014600022F440021143C9F84410C10705D000F02E
:1014700007FB002818BF05466068810705D500F006
:10148000D0FB002818BF05466068410705D500F06D
:10149000D2FB002818BF05466068010705D500F09B
:1014A000C5FB002818BF05466068C10605D500F0D9
:1014B000B3FB002818BF05466068800604D500F01D
:1014C000E4FA002818BF0125002D18BF0125284681
:1014D000BDE8F8830125012619E70125012736E734
:1014E00001257FE780B500F02FF80949154B0A6800
:1014F000096801F00F01C2F30322595C9A5C01F004
:101500001F0102F01F02D040024A1060C84080BD97
:10151000184402580400002480B5FFF7E3FF08498F
:10152000084A0968C1F3021100F046BB80B5FFF715
:10153000D9FF0349034A0968C1F3022100F03CBB0B
:101540001C440258EC3C000810B534490869C0F34B
:10155000C20003280FD0022804BF324810BD40B992
:1015600008688006334858D50968C1F3C101C840EE
:1015700010BD2B4810BD8A6A886ACB6A4C6BC0F3D9
:101580000510F0B103F00103C4F3CC0402F0030230
:101590006343022A00EE103AB8EE400A13D0AAB90B
:1015A0000A68920651BF9FED221A0A68C2F3C1026F
:1015B000204B42BF23FA02F201EE102AB8EE411A84
:1015C00006E0002010BD9FED191A01E09FED161AEC
:1015D0000A6B9FED193A6FF35F2202EE102AB8EE04
:1015E000422A00EE032AB7EE000A32EE000A02EEAB
:1015F000100A086BC0F34620B8EE422A013081EE93
:10160000021A21EE000A01EE100AB8EE411A80EE2D
:10161000010ABCEEC00A10EE100A10BD00440258C8
:1016200000093D0040787D010024744A20BCBE4B77
:101630000024744C0090D003000000392DE9F041E3
:101640000446D0F88800202819D10E46D1B1CAB17D
:1016500021204FF00008C4F89080C4F88800A4F856
:1016600054201D469A488768A4F85620A068B0F513
:10167000805F0CD1206940B14FF0000807E00220E4
:10168000BDE8F0810120BDE8F081B0460026B4F845
:101690005600C8B1204680213A462B4600F0A0FCF7
:1016A00000BB26B1216816F8010B886206E038F805
:1016B000021B206800266FF35F218162B4F8560098
:1016C0000138A4F85600E2E7204640213A462B466E
:1016D00000F086FC2021C4F88810002818BF0320E1
:1016E000BDE8F0812020C4F888000320BDE8F08127
:1016F000FEE70000F0B5DB4A13689C69E40602D4FB
:101700000020002133E001264FF0000CD64D1024BC
:10171000DC619F69BF0623D4F70721D0AE68771A32
:1017200001268742F5D95F6892F842609C692404DB
:1017300009D517F4804406D1202E04D0596841F40D
:1017400080415960A9689C69A40607D4AC68641AF2
:101750001A2CF8D34CF0200C0026DAE70126D8E743
:10176000F00701D02020D8614CF0040001219C69D1
:10177000E50505D54FF48071D96140F001000121E4
:10178000650504D4A40509D469B90020F0BD4FF45F
:101790008061D96140F00800A10504D540F0020045
:1017A0004FF40071D9619969890701D500219962C7
:1017B0009969C90703D1996941F001019961596893
:1017C000AD4C21405960516C08435064202082F890
:1017D0004100002082F8400082F842000120F0BD64
:1017E0001143074B194041EA00409E4909684B6884
:1017F00023EA52529D4B1A401043D0304860704744
:101800002FFFFF7F2DE9F8431C4615460E4607467D
:10181000DFF85082DFF8789800F08CF91DD1284667
:101820002146FFF767FFA8B9D9F80800001BA842B6
:10183000F2D900F07FF9EFD1D8F8440040F0200051
:10184000C8F84400202088F84100002088F84000B3
:1018500088F842000120BDE8F8830020BDE8F88345
:1018600070B504467F4D804E28688069800610D48C
:1018700064202146FFF73EFF48B9B068001B652889
:10188000F2D3286880698006EED400F003F90120C5
:1018900070BD002070BD00BF70B50446714D724E22
:1018A00028688069800710D464202146FFF722FF52
:1018B00048B9B068001B6528F2D3286880698007A2
:1018C000EED400F0E7F8012070BD002070BD00BF2D
:1018D000DC010024F0B585B015460E4607460DF133
:1018E00006013B200E221C46FFF780F8BDF80600DB
:1018F0000A9900BA000C3880BDF8080000BA000C44
:101900003080BDF80A0000BA000C2880BDF80E0037
:1019100000BA000C2080BDF8100000BA000C08804E
:101920000B99BDF8120000BA000C088005B0F0BD9C
:101930002DE9F8434B4E8DF80310054696F841000B
:10194000202810D196F8400001280CD046480127E5
:1019500086F840700121192284684FF40040234624
:10196000FFF750FF08B1BDE8F883212086F8410059
:101970004FF00008402086F84200C6F84480778582
:10198000C6F83480394F31680DF103007062A7F555
:1019900080604A681040364A104348602046FFF78E
:1019A0007BFF40B930680021642223468562802095
:1019B000FFF728FF18B186F84080BDE8F883708DE6
:1019C0002C4A9146B0F5807F07D3FF2030853068E0
:1019D000416839401143416001E000F0A3F8FF2560
:1019E0002046FFF759FF0028BDD1716A306811F811
:1019F000012B8262708D013870857162308D0138E3
:101A00003085718DC1B1000416D18020002164227F
:101A10002346FFF7F7FE0028A5D1708DB0F5807F33
:101A200008D3306835854A464168394041EA0901A2
:101A3000416001E000F076F8708D0028D0D120469A
:101A4000FFF70EFF00287FF48EAF306820210A4B8D
:101A5000C16142681A40426086F84110002086F851
:101A60004200A8E7A0000024DC010024009C00FC48
:101A7000D0200101D000FF0100E800FEFEE7FEE7F4
:101A800004F10800002100F0FBB804F12800022155
:101A900000F060B9686C40F020006864202085F890
:101AA0004100002085F8400085F8420070476FF340
:101AB0005F2302EE103AB8EE422A00EE032A03EE4C
:101AC000102AB7EE000A7047D9F8401000254A46A0
:101AD0007047D9F8481000254A467047C5F3CC0531
:101AE00003F003036C43022B00EE104AB8EE400AE9
:101AF0007047B969BA69C1F3032118F8011001F000
:101B00001F01C840704705F4FE052C44056906EB2B
:101B1000056505F0FE452C44704782B228462146F3
:101B200064234847708D4FF0007100223085C0B2A9
:101B3000FFF756BED8F8000080693840C01BB0FAE5
:101B400080F04009B0427047D9F81C00494640F483
:101B50000030C9F81C007047D9F8441000254A46E7
:101B60007047C7F8E000D7F8E00070476423FFF73C
:101B700065BD0568016821F00101016089F8846094
:101B80008168704722466FF07E43284600F028BAED
:101B90000843C9F848007047D9F800000560C9F843
:101BA00088A0C9F8888070470843C9F8400070478A
:101BB0000843C9F844007047515C01F01F01C84058
:101BC00080BDC2F34622B8EE433A32EE002A81EEDF
:101BD000031A21EE021A02EE102AB8EE422A32EE61
:101BE000002A81EE022ABCEEC22A80ED002A70474C
:101BF00082B22046294664233047002164224346AE
:101C0000FFF700BEF86940F40030F86170470890B3
:101C10000898D7F8E000704704F12800012100F08F
:101C200099B804F10800012100F02AB804F1280055
:101C3000002100F08FB804F10800022100F020B864
:101C4000C1F3066102EE101AB8EE422A32EE000A23
:101C500081EE000ABCEEC00A10EE101A7047C2F303
:101C6000064202EE102AB8EE422A32EE002A81EE37
:101C7000022ABCEEC22A80ED012A7047704700009C
:101C8000F0B5914A936A03F00303032B04BF0120CC
:101C9000F0BD136823F080631360BE4B9C68156829
:101CA0002D0104D59D682D1B022DF8D94EE090E83A
:101CB0007010976A27F47C37013D47EA0434946238
:101CC0006FF35F254FF47E4404EB46244FF0FE464D
:101CD000A4B22C444FF4FE0505EB0C45FFF713FFAF
:101CE00094634469D56A25F0C0052C43D4628469A5
:101CF000D56A25F020052C43D4624FF6F875D46AD6
:101D000024F01004D462D46BC069AC4344EAC00030
:101D1000D0630129D06A40F01000D0624FF4001067
:101D200008BF4FF48010002908BF4FF40020D16A8B
:101D30000843D062106840F08060106098681168B5
:101D4000090105D49968091A0329F8D30320F0BDC5
:101D50000020F0BDF0B55C4A936A03F00303032B47
:101D600004BF0120F0BD136823F080531360C84BFB
:101D70009C681568AD0004D59D682D1B022DF8D90F
:101D80004EE090E87010976A27F07C77013D47EAB3
:101D9000045494626FF35F254FF47E4404EB4624B1
:101DA0004FF0FE46A4B22C444FF4FE0505EB0C4563
:101DB000FFF7A9FE14644469D56A25F440652C43F5
:101DC000D4628469D56A25F400752C43D4624FF639
:101DD000F875D46A24F48074D462546CC069AC433E
:101DE00044EAC00050640129D06A40F48070D06297
:101DF0004FF0807008BF4FF40000002908BF4FF477
:101E00008000D16A0843D062106840F080501060B2
:101E100098681168890005D49968091A0329F8D3CC
:101E20000320F0BD0020F0BD704700009848816895
:101E300001318160704700BF10B52148214A016817
:101E400041F470010160106800F00F00062804D80A
:101E50001068072161F3030010601B481B4C0168E8
:101E600041F001010160002101610368234003602A
:101E700013681B0704D51368072464F30303136076
:101E8000134A8161C16101628262124AC262124ACE
:101E9000026341638263C16302644164026822F4A5
:101EA0008022026001660D480068B1EB507F02D1CC
:101EB0000B48012101600B4843F2D201016010BDC3
:101EC00088ED00E000200052004402587FEDF6EA61
:101ED000000202020000FF01800201010010005C0C
:101EE000088100510040005210B5694BD869C168A3
:101EF0000269940708D58C0706D56FF002040461C7
:101F0000002483F838408469540708D54C0706D567
:101F10006FF004040461002483F8384084691407D6
:101F200008D50C0706D56FF008040461002483F877
:101F30003840C469D40608D5CC0606D56FF0100425
:101F40000461002483F83840C369D30704D0CB0769
:101F500002D06FF00103036112F4025F04D00B069C
:101F600002D56FF402530361D30504D50B0602D5E5
:101F70006FF480730361530604D54B0602D56FF0EE
:101F800040030361920604D5890602D56FF0200153
:101F9000016110BDDC010024B0B50E48416E91B165
:101FA00002680D4B0D4D91689268520FC1F342616A
:101FB0005C5C695C9B5CAA5C09011201B1FBF4F1F9
:101FC000B2FBF3F201E001220121A0F86810A0F8B1
:101FD0006A20B0BDF4000024043D0008FC3C000869
:101FE000F0B505685E1CDFF8A8C0EC690C408C42B7
:101FF0001AD0002EF9D0DCF80840A71A03249F421B
:1020000013D893B12C686407EFD5402918BF8029F5
:10201000EBD0EC6924070AD4EC692405E5D5032448
:1020200020214FF4006205E000242046F0BD012489
:10203000082208212A6255E8002F036822F49072D2
:1020400043E800250DB10568F5E7124A036853E837
:10205000023F0568134045E80236002EF6D1C26EF5
:10206000012A09D1026852E8002F036822F0100209
:1020700043E80025002DF5D12022C0F88C20002255
:10208000C266426780F88420C0F89010CDE700BF98
:10209000DC010024FEFFFFEFFEE70000C2B0AD4808
:1020A0004FF6FF0201681140AB4A11430160FFF790
:1020B0004BFAAA4FDFF8A882AA4CFFF71AFD20605E
:1020C0000F20FEF74BFD58B9D7F8F40040F002009E
:1020D000C7F8F400D7F8F40000F002000890089860
:1020E000A1480268016852070ED5022262F302017C
:1020F00001609E498A6850F8083C9B0404D48B68B0
:102100009B1AB3F57A7FF6D90021089198490A689D
:1021100022F001020A600A6802F001020892C26815
:1021200042F44042C260C26802F440420892089AF7
:10213000C2689204FCD5D7F8F42042F00202C7F836
:10214000F420D7F8F42002F002020892089A002244
:102150000892C26842F44042C260C26802F440423F
:1021600008920A6842F001020A60096801F0010160
:1021700008910899C1688904FCD5386900F03801D4
:10218000B86A102905D0182926D100F003000228CA
:1021900022D13868386900F0380018282AD1B86A86
:1021A00040F2F3310140386B522913D101466FF3ED
:1021B0005F21BF2904BF00F47E41B1F5007F09D142
:1021C00000F4FE01B1F5803F04BF00F0FE40B0F125
:1021D000807F54D0FEF736FB386840F4803038609A
:1021E000624881683A689203D4D48268521A642A99
:1021F000F8D9EFE7386820F0807038605B48816874
:102200003A68920104D58268521A022AF8D9E1E7A5
:10221000B96A40F2F33291434FF6F8725231B96223
:1022200054493963F96A21F00101F962796B9143EC
:1022300079630222F96A62F38301F962F96A21F093
:102240000201F962F96A41F48031F962F96A41F4F4
:102250000031F962F96A41F48021F962F96A41F0CA
:102260000101F962396841F08071396081683A682A
:1022700092011BD48268521A022AF8D9AAE7786B15
:102280004FF6F871084211D0F86A20F00100F862A8
:102290003648816882688A42FCD0786B4FF6F871C4
:1022A00088437863F86A40F00100F86232480168B8
:1022B00011F00C0F0AD10168042262F303010160DE
:1022C000016801F00F0104297FF484AFB969490660
:1022D00004D4B969042262F30611B961F9694906A7
:1022E00004D4F969042262F30611F961F969490518
:1022F00004D4F969042262F30A21F961396A4906B2
:1023000004D4396A042262F306113962B9690907F3
:1023100004D4B969082262F30301B961B96921F4EF
:102320007061B961396889017FF554AF3969032259
:102330000E4E62F30201396141F28832B1683B69A5
:1023400003F03803182B19D0B3685B1A9342F6D9FF
:1023500040E700BF0CED00E00003FA05004402581E
:10236000EC3C0008040000240C480258DC01002466
:102370002C040058BF02010100200052B96901F08D
:102380000F01092904D3B969082262F30301B96175
:10239000016801F00F0105290AD30168042262F3E4
:1023A00003010160006800F00F0004287FF412AF01
:1023B000B86900F07000412804D3B869042161F3C2
:1023C0000610B861F86900F07000412804D3F8697C
:1023D000042161F30610F861F86900F4E060B0F5DB
:1023E000806F04D9F869042161F30A20F861386A22
:1023F00000F07000412804D3386A042161F306100C
:102400003862FFF7A1F8FFF774FB317920601020E4
:10241000002918BF0F20FEF7A1FB00287FF4DAAED9
:10242000D7F8E000DFF8109ED74A4FF4E1310025DD
:1024300040F00400C7F8E00002F53844D7F8E000A7
:1024400000F00400FFF7E3FB40F08000FFF789FB9A
:1024500000F08000FFF7DBFB40F00200FFF781FB9C
:1024600000F00200FFF7D3FB40F00100FFF779FB1B
:1024700000F0010008900898C9E900411421C9E959
:1024800002550C20C9E9045009F11800FEF7CDF9F6
:10249000D9F8880000284CD189F8845008ACB821BC
:1024A00004F10800FEF7C1F90120089009952046C3
:1024B000FEF732FC00287FF48DAED7F8F0004FF025
:1024C000070A40F01000C7F8F000D7F8F00000F05D
:1024D000100039903998D7F8E00040F00100FFF77C
:1024E00040FB002700F001004090CDF8F4A0CDE9BA
:1024F0003B7702203A904FF400703990409839AD04
:10250000A248294600F5FA342046FEF7A7F9122022
:102510003A902946CDE93B77CDF8F4A09C4F4FF493
:10252000806039902046FEF799F9D9F80040D9F833
:1025300028502420C9F888002068002D20F00100D0
:10254000206051D0280706D5D9F83800616821F4F9
:10255000004108436060E80706D0D9F82C006168A4
:1025600021F4003108436060A80706D5D9F830008F
:10257000616821F4803108436060680706D5D9F8A6
:102580003400616821F4802108436060E80606D5C4
:10259000D9F83C00A16821F480510843A060A80646
:1025A00006D5D9F84000A16821F400510843A06085
:1025B000680610D5D9F84400616821F48011014300
:1025C0006160B0F5801F06D1D9F84800616821F438
:1025D000C00108436060280606D5D9F84C00616840
:1025E00021F400210843606009F108052068694969
:1025F00001402DCD184340EA0503D9F81C00634D76
:10260000034319432160644B616821F44051114335
:102610006160D9F81810D9F82020AC4218BF1143D6
:10262000A2681A401143A160D9F82410E26A22F08E
:102630000F020A43E262594A94421CBF584A94422C
:102640000BD0584A94421CBF574A944205D0574A6F
:1026500094421CBF564A944209D17A6D02F0070297
:10266000062A1CD2DFF8DC3B1A44127818E0AC4290
:102670000DD0504A944202D04F4A94420FD17A6D05
:10268000C2F3C202062A0AD2DFF8BC3BECE7BA6DFD
:1026900002F00702062A02D20FF6A033E4E78022F6
:1026A000AC4213D0B0F5004F28D1082A37D8364FA6
:1026B000DFE812F00900AC00B605B605AF00B605BC
:1026C000B605B605B400FEF727FFABE0402A40D0C0
:1026D000042A41D0082A44D0102A4CD0202A6FD096
:1026E000022A40F09D85FEF7FDFE396AC1F3021112
:1026F00018F8011001F01F01C84036E0082A1BD865
:10270000214FDFE812F0090093008D058D0596003A
:102710008D058D058D059B00FEF7FEFE92E0102ACB
:1027200000F09C80202A00F0A280402A164F40F042
:1027300077854FF400409CE0102A00F0B580202AF5
:1027400000F0BB80402A104F40F06A854FF40040F3
:10275000B5E04FF4004034E008A8FEF751FA0998BC
:1027600003E039A8FEF792FA3A980028064F6DD098
:10277000D9F8241026E038688006104821D53A6838
:10278000C2F3C102D0401CE000580040000C0058C9
:1027900000440258F369FFCFFFF4FF1100440040EA
:1027A00000480040004C00400050004000780040CD
:1027B000007C004000140140001001400090D00354
:1027C000C648C74FDFF8842A32F81110D9F8042020
:1027D000B0FBF1F002EB42018842C0F02185B0EB82
:1027E000023F00F21D85010E000210EB520041F184
:1027F000000100230024FDF788FDA0F54071B94ACF
:1028000091426FD3C9E91D4400F00DBDFEF78EFE65
:1028100008E008A8FEF7F4F9099803E039A8FEF7E4
:1028200035FA3A9890B1D9F8241022E0FEF77EFEEE
:1028300008E008A8FEF7E4F9099803E039A8FEF7D4
:1028400025FA3A9810B1D9F8241038E00020C9E9E7
:102850001D004FF00110C9F868004DE0386880068F
:10286000A14805D53A68C2F3C102D04000E09B48B8
:102870009B4FDFF8D82932F81110B0FBF1F0D9F8EE
:1028800004104A0802EB40004FF6EF72B0FBF1F083
:10289000A0F11001914200F2C3844FF6F0710140A3
:1028A000C0F3420008441DE0386880068E4805D514
:1028B0003A68C2F3C102D04000E08848884FDFF890
:1028C0008C2932F811104FF6EF72B0FBF1F0D9F805
:1028D000041000EB5100B0FBF1F0A0F110019142A7
:1028E00000F29E840021C9E91D114FF00111C9F8C1
:1028F0006810D9F80010C860D9F80000416821F4C8
:1029000090414160816821F02A018160016841F0B5
:10291000010101600021C9F89010B468016809073D
:1029200008D5DFF814594FF40011FFF72BF90028F0
:102930004DD128680168490708D5DFF8FC584FF4E5
:102940008001FFF71FF900284ED128684FF0200AB8
:10295000C9F888A0C9F88CA00024C9F86C40C9F84F
:1029600070404FF02408C9F888800126FFF701F96C
:1029700021F060418160FFF70FFBFFF70DF9FFF7D2
:10298000F8F821F060618160FFF706FBFFF704F9BA
:10299000DFF8BC580168026821F0005122F0010202
:1029A000026001605148C9F8644089F884402F6092
:1029B000291D834651C105F11000C9F888A01421D2
:1029C000FDF733FF95F8410058B3384668E02868B2
:1029D00050E8001F284621F0800150F8882B42E87B
:1029E0000013002BF3D115E0286850E8000F296888
:1029F00020F4907041E80002002AF5D1286850E8E0
:102A0000021F284621F0010150F88C2B42E80213E6
:102A1000002BF3D1002189F8841020210160FDF7FB
:102A200011FF85F8404008AFB82107F10800FDF715
:102A3000FCFE0820089009943846FEF76DF900283E
:102A40007FF4C8AB2A4CD4F8E00040F00200C4F890
:102A5000E000D4F8E00000F00200409004203D9037
:102A600002203C9001203B9012203A904FF44060AD
:102A70003990409839A91F4800F5FC30FDF7EEFE6B
:102A8000D4F8E80040F48000C4F8E800D4F8E80086
:102A900000F4800040904098D5E90246D5E9000B4B
:102AA00085F84180DFF88C77012E016821F0010163
:102AB00001602BF070610161816821F40041816047
:102AC00003D144F40041816016E0022E44F4044135
:102AD000816011D1416841F4006110E000093D00BE
:102AE0000058004000FD0F000090D003DB3FB00015
:102AF00000440258000C0058416821F40061416014
:102B0000E24A05F11004416811434160C16821F4B3
:102B10000041C1601ECC1143202241EA0321C16063
:102B2000296A21430160016841F00101016000212F
:102B3000696485F84120296385F8421095F84110B1
:102B400020297FF447AB95F8401001293FF442ABB0
:102B5000242285F841202023016821F00101016031
:102B6000016821F48051016001680160016841F051
:102B70000101016085F84130002185F8401095F889
:102B80004140202C7FF426AB85F84120026822F0DA
:102B900001020260026822F470620260026842F080
:102BA0000102026085F8413085F84010796349F6EA
:102BB0003F434FF08040C7E90703F96240F2E73234
:102BC000C7E9091297F8591029B1022187F859105D
:102BD0000268002126E0002087F858000021AC4858
:102BE0008346D0F8E80040F00100CBF8E800DBF8BD
:102BF000E80000F00100089008981C20FDF7DAFFBB
:102C0000A4484FF080510160022087F85900A24883
:102C100000F52841F869411AB1FA81F102684FEADA
:102C200051112CD0B0F1804F1CBF9C4B98421CD14D
:102C300022F070027B6A1A43B0F1804F23D0974B89
:102C400098421CBF964B98421DD0964B98421CBF91
:102C5000954B984217D0954B984214D0944B98427C
:102C600011D0944B98420ED011E08D4B9842DFD09A
:102C70008D4B9842DCD08B4B9842D9D0DCE722F0C8
:102C800070027B6A1A43FB6A22F440721A437D6B1E
:102C900022F080023B6ABC6A2A430260C4628362FB
:102CA000002900F0CE80396B016301214161026986
:102CB000D20703D0026922F00102026187F8641092
:102CC00087F85A1087F85B1087F85C1087F85D105A
:102CD00087F85E1087F85F1087F8601087F861103A
:102CE00087F8621087F8631087F8591097F8581022
:102CF00001293FF46FAA022187F859106E4B40F466
:102D0000806482681A408260012287F8592087F81F
:102D1000591087F85820644A43688168944208BF74
:102D200023F47003B0F1804F23F0700343600CD0A4
:102D30005A4B98421CBF5A4B984206D0594B984266
:102D40001CBF5E4B984240F0528121F080018160AF
:102D50000120002487F8584087F859000FF2FC4101
:102D600022226423DFF8D004FEF768FC6420FDF71C
:102D70006DFD3878002840F08081DFF8045564202C
:102D8000A8476420A847DFF8FC646B200121B04706
:102D90003220A8471B200021B0471C200021B0474B
:102DA0003220A8476420A8478DF8204008AC752041
:102DB00001222146FDF71AFE9DF82050DFF8C86475
:102DC0000FF2C84130462A4600F0C4FA3046FDF7FB
:102DD0007FFA82B2DFF860043146FEF7C7FE682D45
:102DE00040D1DFF85484DFF80015DFF800551422D5
:102DF00064234046A847DFF8F81440462D22642398
:102E0000A847DFF8F014404629226423A847032688
:102E1000DFF874740FF2E045002E51D03846294691
:102E2000324600F097FA3846FDF752FA82B2404631
:102E30003946FEF79BFE4FF47A70FDF707FD013E21
:102E4000EAE7194988423FF42EAF184988423FF417
:102E50002AAF174988423FF426AF164988423FF40B
:102E600022AF22E7DFF8D0430FF238411422642367
:102E70002046FEF7E3FB0FF2444120462B22FEF7EB
:102E800075FE4FF47A70FDF7E1FCFAE7008000026E
:102E90000044025800E100E00058004000040040F7
:102EA00000080040000C00400004014000400140C8
:102EB00000480140004401408800CEFF0018004057
:102EC000DD4EDFF83C141922642300250A95CDE974
:102ED00008553B95CDE939553046FEF7AFFBDFF895
:102EE000241430462622FEF741FE0DF1FA074FF07A
:102EF000320B0DF1E408381D0790B81C069040AE67
:102F000006F1040906F1020AB5F5FA7F3ED00698EB
:102F1000009051464A463B46079801903046FEF7DE
:102F2000D9FC002003280FD036F9101054F82020C7
:102F3000114444F8201058F8202037F9101011449B
:102F400048F820100130EDE70135B5FBFBF000FB40
:102F50001B50B8B9D346CA46DFF82C93EA492A4633
:102F60004FF4FA73484600F0F5F94846FDF7B0F91A
:102F700082B24946B0486423D146DA464FF0320B5C
:102F8000FEF75CFB0A20FDF761FCBDE700204FF473
:102F9000FA71A84F03280DD054F8203007EB4002F7
:102FA00093FBF1F3938158F82030013093FBF1F358
:102FB0005382EFE74FF4FA700A99B34C91FBF0F5A6
:102FC000D24920462AB200F0C5F92046FDF780F923
:102FD00082B299482146FEF7C9FD2904388A0029A2
:102FE00010DDA0F580403882CA492E220FE09A4BAE
:102FF00098423FF4AAAE974B984218BF90423FF4D4
:10300000A4AEA5E600F580403882C1492F228A4847
:10301000FEF7ACFD884CB54EBF49172264234FF034
:10302000010887F818802046B047B7F91000B7F9B3
:103030000C20B7F90E30944DB8490090284600F0A6
:1030400089F92846FDF744F9FEF7D2FDB7F91600D5
:10305000B7F91220B7F91430B1490090284600F0B2
:1030600079F92846FDF734F9FEF7C2FDAD4920464F
:103070001222642387F80080B04739A8BFEE00BB56
:103080009FEDA99A9FEDA9AA7F4CDFF8A8B2DFF8BF
:10309000A882694DDFF854929FEDA9CA011D023044
:1030A0000791069008A8011D02300591049006982A
:1030B00000903E7E0798019008A8DDE9041239AB24
:1030C000FEF708FC1EB3B889BDF82010081AADF849
:1030D0002000BDF82210F889081AADF82200BDF8CA
:1030E0002410388A081AADF82400BDF8E410788A54
:1030F000081AADF8E400BDF8E610B88A081AADF871
:10310000E600BDF8E810F88A081AADF8E800BDF945
:103110002000BDF92210BDF92420BDF9E4A0BDF9BD
:10312000E660BDF9E87000EE100A01EE102AB8EE74
:10313000C00AB8EEC11A20EE09DA00EE101A21EE2C
:1031400009FAB8EEC00A20EE09EA2EEE0E0AADEE3C
:103150000D0AAFEE0F0AB7EEC00AB1EEC08BB4EEA7
:10316000488BF1EE10FA56D600EE107AB7EECE1A72
:1031700020466F498DED001BB8EEC00AC0EE0A9ADA
:1031800000EE106AB8EEC00AC0EE0AAA00EE10AA5D
:10319000B8EEC00AC0EE0ACAB7EECF0A8DED020B38
:1031A000B7EECD0A53EC102BD8472046C047FEF7A8
:1031B000B4FCB7EEE90AB7EEEA1A20465F498DED96
:1031C000020BB7EEEC0A8DED001B53EC102BD84729
:1031D0002046C047FEF7A1FC38EE0B0B5B4859A117
:1031E000B7EEC00BB0EEC01AB7EEC00A53EC102B0E
:1031F000B4EE4C1AF1EE10FAD8BF084600905449CC
:103200002046D8472046C047FEF787FCC820FDF778
:103210001DFB084F4BE700F0B1F8B0EE408BA3E781
:103220000020C9E91D004FF00110C9F86800FDF742
:1032300009FB00BFDC010024F40000240204081094
:1032400020400000E63C0008E03C0008C83C0008C4
:10325000A000002400400140000001403D3D3D2011
:103260004D505536303530204D6F74696F6E2044A7
:103270006574656374696F6E203D3D3D0D0A000005
:103280004D08000831190008080000244D5055363B
:103290003035302049443A203078253032580D0AF4
:1032A000000000004D505536303530204E6F7420F0
:1032B000466F756E64210D0A000000005379737427
:1032C000656D2048616C7465642120436865636B9B
:1032D000204D50553630353020636F6E6E65637407
:1032E000696F6E2E0D0A0000493D00083D1600086A
:1032F0005D3E00080C3D000825642E2E2E0D0A00B0
:10330000433E0008763D0008893E00089D3D0008C8
:10331000E83D0008163E00085E3D0008A03E00089B
:10332000C23E0008363D000800008038000003431C
:10333000F73E000855330008D10200081A3F000884
:10334000CDCCCC3D5B5354494C4C5D003F3F000815
:10335000E33E00080FB4084B10B504A902AA039875
:1033600000F016F9044602A9002000F0A8FC20464F
:1033700010BC5DF814FB0000BF3C000800B52DED4B
:10338000028B83B0B1EEC08B18EE100A18EE901AC3
:103390008DED008B002818BF0120084320F000406D
:1033A000C0F17F6000F1E040C00F14D010EE101AA1
:1033B00010EE900A8DED000B002918BF0121084383
:1033C00020F00040C0F17F6000F1E040C00F04BF7A
:1033D000012000F015F8B0EE480B03B0BDEC028BF5
:1033E00000BD02E008C8121F08C1002AFAD17047C8
:1033F0007047002001E001C1121F002AFBD1704775
:103400000149086070470000000000242DE9FF5FBB
:1034100082B00021DDE90430020DDDF840B0034345
:1034200018D044F61050A2F2FF32424315141198FE
:1034300001281FD0A5EB0B00401C5FEA000A4FF0EB
:1034400000064E4FDFF83891B046504615D5CAF108
:10345000000413E0119801244AA3012801D16FEA66
:103460000B010298119AC0E90031C0E9024206B08E
:10347000BDE8F09FCBF10000DFE704460021404AA1
:10348000491842EB0450CDE9001012E0E00707D0E4
:1034900032463B4640464946FDF70FF8804689468E
:1034A00032463B4610461946FDF707F806460F46DA
:1034B0006410002CEAD1DDE90401DDE90023BAF152
:1034C000000F06DAFCF7F9FF42464B46FCF7F5FF22
:1034D00005E0FDF764F842464B46FDF760F8044608
:1034E0000E460022284BFDF7E1F803D84FF0FF30DD
:1034F000014607E00022254B20463146FCF736FF07
:10350000FDF7BCF8102409E0002C0ADB0A22002396
:10351000FCF7FBFE039B30321A55641E50EA010291
:10352000F2D1641C039AC4F111031444119A012AC4
:1035300003D0012208430DD10AE0084304D0002043
:103540004FF0110B119072E7A3EB0B056D1E0DE010
:103550005B4504DD4FF0000205F1010504E003DAEC
:103560004FF00002A5F10105002AECD00298119954
:10357000C0E90231C0E9004579E7000000001440CD
:103580000000F03F300000000000F0430000E03F8A
:103590002DE9FF4F95B09B468946064600250FE270
:1035A000252877D100242746F84A0121059400E018
:1035B000044316F8013F203B01FA03F01042F7D113
:1035C00030782A2811D06FF02F033078A0F1300224
:1035D000092A16D8059A44F0020402EB820203EB92
:1035E00042021044761C0590EFE759F8042B05922F
:1035F000002A03DA504244F40054059044F00204D7
:10360000761C30782E2816D116F8010F44F00404E9
:103610002A280DD06FF02F023078A0F13003092B4B
:1036200009D807EB870302EB4303C718761CF3E7BF
:1036300059F8047B761C30786C280FD006DC4C28B7
:1036400017D068280DD06A2814D104E0742810D04F
:103650007A280FD10DE044F400140AE044F48014F9
:1036600001E044F440147278824202D104F58014DF
:10367000761C761C307866280BD013DC582877D05F
:1036800009DC002875D04528F6D04628F4D0472814
:103690001AD19DE118E0632835D0642879D06528D7
:1036A00012D195E1702873D008DC6728F1D0692821
:1036B0006FD06E280DD06F2806D1B5E073282CD0BE
:1036C000752875D0782874D05A46179990476D1C84
:1036D00075E1C4F30250022809D003280DD0D9F8AF
:1036E000001004280DD00D6009F1040967E1D9F834
:1036F0000010EA17C1E90052F6E7D9F800100D8072
:10370000F2E70D70F0E719F8041B8DF800100020A7
:103710008DF80100EA46012003E059F804AB4FF0B0
:10372000FF3061074FF0000102D40DE008F1010104
:103730008846B9420FDA8045F8DB1AF808100029EC
:10374000F4D108E008F1010188468142FADB1AF859
:1037500008100029F6D105985B46A0EB0807214622
:103760003846179A00F094FA284400EB080507E061
:103770004DE029E10DE01AF8010B5A4617999047E0
:10378000B8F10108F7D25B4621463846179A13E193
:1037900042E00A220092C4F302524FF0000A022AC9
:1037A00008D059F804CB032A4FEAEC710AD00DE097
:1037B00029E02AE009F1070121F00702F2E802C13D
:1037C000914609E00FFA8CFC4FEAEC71042A03D110
:1037D0004FFA8CFC4FEAEC71002907DA0A46002107
:1037E000DCF1000C61EB02012D2202E0220504D580
:1037F0002B228DF80420012203E0E20701D02022D1
:10380000F7E7904659E00A2102E010220DE010216E
:103810004FF0000A00910BE010224FF0000A44F034
:1038200004040827009203E008224FF0000A0092E7
:10383000C4F30252022A05D059F804CB0021032A0E
:1038400008D009E009F1070121F00702F2E802C1FE
:10385000914605E01FFA8CFC042A01D10CF0FF0C04
:103860004FF00008220728D5702806D0009B83F06F
:10387000100353EA0A0305D00EE040228DF804201D
:10388000012208E05CEA010206D030228DF8042013
:103890008DF8050002229046009B83F0080353EA4E
:1038A0000A030AD15CEA010201D1620705D5302280
:1038B0008DF804204FF001087F1E582804D034A052
:1038C00003900EA802900DE036A0F9E7534660463B
:1038D000009AFCF71AFD84460398825C0298401E09
:1038E000029002705CEA0100F0D1029806A9081A61
:1038F00000F1200A600702D524F4803400E001279B
:10390000574502DDA7EB0A0000E0002000EB0A01AA
:10391000009005984144401A0590E00306D45B46A8
:103920002146179A059800F0B3F90544002706E0F0
:1039300001A85A46C05D179990476D1C7F1C4745EA
:10394000F6DBE0030CD55B462146179A059800F09C
:103950009FF9054404E030205A46179990476D1CA2
:103960000099481E00900029F5DC08E002980299B1
:103970005A460078491C0291179990476D1CBAF17C
:103980000001AAF1010AF1DC65E10000092801004B
:1039900030313233343536373839616263646566C5
:1039A0000000000030313233343536373839414287
:1039B000434445460000000000F058F90544761CD9
:1039C000307800287FF4ECAD19B02846BDE8F08FC0
:1039D000620700D4062709F1070222F0070CFCE871
:1039E0000223E14603F000485FEA080C02D00FF220
:1039F000702C0DE05FEA045C02D50FF2682C07E042
:103A00005FEAC47C02D00FF2602C01E0AFF2700CD0
:103A10004FF0FF3823F00043CDF850C065280CD09C
:103A200006DC452809D046281DD047283DD13DE079
:103A3000662818D067287ED138E00021112F01DBDD
:103A4000112000E0781CCDE9000106A90EA8FFF7BF
:103A5000DDFCDDE90F010E9A03910021009207F1D0
:103A6000010A04914DE04FF000400097CDE90110AC
:103A700006A90EA8FFF7CAFCDDE90F0203920E9B10
:103A800011990022DDF80CA00093049211B9791C61
:103A900000EB010AB7EB0A0004D4C0F1FF3007F1D4
:103AA000010A0490AAEB0700019044E0012F00DA1C
:103AB00001270021112F01DD112000E03846CDE95A
:103AC000000106A90EA8FFF7A1FCDDE90F010E9A7F
:103AD0000391002104910092BA4621070CD4039966
:103AE000514500DA8A46BAF1010F05DD009AAAF1C4
:103AF0000101515C302908D0B84202DA10F1040FFC
:103B000006DA0121CDE9011015E0AAF10101E9E78A
:103B1000002805DC049901440491AAEB000102E0AD
:103B2000411C514500DD8A460499401A401C019011
:103B30004FF000400290200704D40198504501DB6B
:103B4000CDF8048000208DF84F0002980DF14F074A
:103B5000B0F1004F25D02B200E9002984FF00208B4
:103B600000280CDA404202902D200E9007E00A2136
:103B70000298FCF7B4FB3031029007F8011DB8F150
:103B80000001A8F10108F2DC02980028EFD1791EAB
:103B90000E980870307800F0200040F0450007F8DB
:103BA000020D12A8C01B00F107081498007800B19C
:103BB000012000EB0A01019801EBE07105984144F6
:103BC000401A401E0590E00306D45B462146179A32
:103BD000059800F05DF805441498007818B15A462D
:103BE000179990476D1CE00324D55B462146179A30
:103BF000059800F04DF805441CE00498002807DB08
:103C0000DDE90301884203DD0098405C179901E07B
:103C1000179930205A469047049805F10105401C39
:103C200004900198401E019004D12E205A46179905
:103C300090476D1CBAF10001AAF1010ADDDC05E034
:103C400017F8010B5A46179990476D1CB8F10001FF
:103C5000A8F10108F4DC5B462146179A0598ABE60B
:103C60002D0000002B000000200000002DE9F04195
:103C7000044600251E461746880404D405E039464C
:103C80002020B0476D1C641EF9D52846BDE8F081A0
:103C90002DE9F041044600251E469046C80301D593
:103CA000302700E02027880404D505E04146384647
:103CB000B0476D1C641EF9D52846BDE8F0810A683E
:103CC000531C0B60107070470100020004000600D6
:103CD00008000A000C0010002000400080000001D5
:103CE00001040810204000040810204000000000DB
:103CF000010203040102030406070809010101038C
:103D0000070100000804020408010101506C65610C
:103D1000736520706C616365204D505536303530C9
:103D2000206C6576656C20616E64207374696C6CC0
:103D3000210D0A0D0A004D505536303530205265A0
:103D4000616479210D0A0D0A004D50553630353029
:103D500020436F6E6E6563746564210D0A004361D4
:103D60006C6962726174696F6E20636F6D706C65EF
:103D70007465210D0A00506C65617365206B656583
:103D800070204D505536303530207374696C6C207E
:103D9000616E64206C6576656C210D0A005A2D6198
:103DA00078697320617665726167653A20256420C1
:103DB0002873686F756C64206265207E2B31363302
:103DC000383420666F7220757072696768742C20B1
:103DD0007E2D313633383420666F7220696E7665F9
:103DE00072746564290D0A004465746563746564C2
:103DF0003A2053656E736F7220696E7665727465D2
:103E00006420285A2D61786973206E656761746932
:103E10007665290D0A0044657465637465643A200B
:103E200053656E736F7220757072696768742028AD
:103E30005A2D6178697320706F736974697665298A
:103E40000D0A005374617274696E672063616C6956
:103E500062726174696F6E2E2E2E0D0A00417574A8
:103E60006F2D63616C6962726174696F6E20737427
:103E7000617274696E6720696E2033207365636FA9
:103E80006E64732E2E2E0D0A0043616C696272619E
:103E900074696E672E2E2E2025642F25640D0A006E
:103EA000416363656C204F6666736574733A20588E
:103EB0003A25642C20593A25642C205A3A25640D61
:103EC0000A004779726F204F6666736574733A20F3
:103ED000583A25642C20593A25642C205A3A2564F6
:103EE0000D0A004D6F74696F6E3A2025362E3366C9
:103EF000672025730D0A004163633A20583A25373D
:103F00002E33666720593A25372E336667205A3A92
:103F100025372E336667207C20004779726F3A2060
:103F2000583A25372E326620593A25372E326620E8
:103F30005A3A25372E326620647073207C20005B4D
:103F40004D4F56494E475D00683F00080000002471
:103F500008000000E2330008703F00080800002459
:103F600040060000F2330008000000000090D0037B
:040000050800029954
:00000001FF
